{"contracts/SampleContract.sol":{"SampleContract":{"abi":[{"inputs":[{"internalType":"address","name":"_pli","type":"address"}],"stateMutability":"nonpayable","type":"constructor"},{"anonymous":false,"inputs":[{"indexed":false,"internalType":"uint256","name":"flightId","type":"uint256"},{"indexed":false,"internalType":"string","name":"eventType","type":"string"},{"indexed":false,"internalType":"address","name":"flight","type":"address"},{"indexed":false,"internalType":"address","name":"performedBy","type":"address"},{"indexed":false,"internalType":"uint256","name":"performedOn","type":"uint256"}],"name":"FlightEvents","type":"event"},{"anonymous":false,"inputs":[{"indexed":false,"internalType":"uint256","name":"insuranceid","type":"uint256"},{"indexed":false,"internalType":"string","name":"eventType","type":"string"},{"indexed":false,"internalType":"address","name":"passenger","type":"address"},{"indexed":false,"internalType":"address","name":"performedBy","type":"address"},{"indexed":false,"internalType":"uint256","name":"performedOn","type":"uint256"}],"name":"InsuranceEvents","type":"event"},{"anonymous":false,"inputs":[{"indexed":false,"internalType":"uint256","name":"invoiceid","type":"uint256"},{"indexed":false,"internalType":"string","name":"eventType","type":"string"},{"indexed":false,"internalType":"address","name":"holder","type":"address"},{"indexed":false,"internalType":"address","name":"performedBy","type":"address"},{"indexed":false,"internalType":"uint256","name":"performedOn","type":"uint256"}],"name":"InvoiceEvents","type":"event"},{"anonymous":false,"inputs":[{"indexed":true,"internalType":"bytes32","name":"id","type":"bytes32"}],"name":"PluginCancelled","type":"event"},{"anonymous":false,"inputs":[{"indexed":true,"internalType":"bytes32","name":"id","type":"bytes32"}],"name":"PluginFulfilled","type":"event"},{"anonymous":false,"inputs":[{"indexed":true,"internalType":"bytes32","name":"id","type":"bytes32"}],"name":"PluginRequested","type":"event"},{"anonymous":false,"inputs":[{"indexed":true,"internalType":"bytes32","name":"requestId","type":"bytes32"},{"indexed":true,"internalType":"uint256","name":"otp","type":"uint256"}],"name":"RequestPermissionFulfilled","type":"event"},{"anonymous":false,"inputs":[{"indexed":true,"internalType":"address","name":"requester","type":"address"},{"indexed":true,"internalType":"bytes32","name":"jobId","type":"bytes32"},{"indexed":true,"internalType":"bytes32","name":"requestId","type":"bytes32"}],"name":"requestCreated","type":"event"},{"inputs":[{"internalType":"address","name":"_passengerAddress","type":"address"},{"internalType":"string","name":"_carrierFlightNumber","type":"string"},{"internalType":"uint256","name":"_departureOn","type":"uint256"},{"internalType":"uint256","name":"_arrivalOn","type":"uint256"},{"internalType":"uint256","name":"_travelday","type":"uint256"}],"name":"bookInsurance","outputs":[{"internalType":"uint256","name":"","type":"uint256"}],"stateMutability":"nonpayable","type":"function"},{"inputs":[{"internalType":"uint256","name":"","type":"uint256"},{"internalType":"address","name":"","type":"address"}],"name":"claimRequest","outputs":[{"internalType":"bytes32","name":"","type":"bytes32"}],"stateMutability":"view","type":"function"},{"inputs":[{"internalType":"bytes32","name":"","type":"bytes32"}],"name":"claims","outputs":[{"internalType":"uint256","name":"polictyid","type":"uint256"},{"internalType":"address","name":"passenger","type":"address"},{"internalType":"string","name":"carrierFlightNumber","type":"string"},{"internalType":"uint256","name":"departureOn","type":"uint256"},{"internalType":"uint256","name":"arrivalOn","type":"uint256"},{"internalType":"uint256","name":"bookedOn","type":"uint256"},{"internalType":"enum IStatus.FlightStatus","name":"flightStatus","type":"uint8"},{"internalType":"uint256","name":"yearmonthdate","type":"uint256"},{"internalType":"bool","name":"processed","type":"bool"}],"stateMutability":"view","type":"function"},{"inputs":[{"internalType":"uint256","name":"","type":"uint256"},{"internalType":"address","name":"","type":"address"}],"name":"flights","outputs":[{"internalType":"uint256","name":"flightId","type":"uint256"},{"internalType":"string","name":"carrierFlightNumber","type":"string"},{"internalType":"string","name":"serviceProviderName","type":"string"},{"internalType":"address","name":"serviceProvider","type":"address"},{"internalType":"uint256","name":"registeredOn","type":"uint256"},{"internalType":"address","name":"registeredBy","type":"address"}],"stateMutability":"view","type":"function"},{"inputs":[{"internalType":"bytes32","name":"_requestId","type":"bytes32"},{"internalType":"enum IStatus.FlightStatus","name":"_flightStatus","type":"uint8"}],"name":"fulfillClaimInquiry","outputs":[],"stateMutability":"nonpayable","type":"function"},{"inputs":[{"internalType":"uint256","name":"","type":"uint256"},{"internalType":"address","name":"","type":"address"}],"name":"insurances","outputs":[{"internalType":"uint256","name":"polictyid","type":"uint256"},{"internalType":"address","name":"passenger","type":"address"},{"internalType":"string","name":"carrierFlightNumber","type":"string"},{"internalType":"uint256","name":"departureOn","type":"uint256"},{"internalType":"uint256","name":"arrivalOn","type":"uint256"},{"internalType":"uint256","name":"bookedOn","type":"uint256"},{"internalType":"enum IStatus.FlightStatus","name":"flightStatus","type":"uint8"},{"internalType":"uint256","name":"yearmonthdate","type":"uint256"},{"internalType":"bool","name":"processed","type":"bool"}],"stateMutability":"view","type":"function"},{"inputs":[{"internalType":"uint256","name":"","type":"uint256"},{"internalType":"address","name":"","type":"address"}],"name":"invoices","outputs":[{"internalType":"uint256","name":"invoiceId","type":"uint256"},{"internalType":"string","name":"invoiceNumber","type":"string"},{"internalType":"string","name":"serviceProviderName","type":"string"},{"internalType":"address","name":"serviceProvider","type":"address"},{"internalType":"uint256","name":"registeredOn","type":"uint256"},{"internalType":"address","name":"registeredBy","type":"address"}],"stateMutability":"view","type":"function"},{"inputs":[],"name":"owner","outputs":[{"internalType":"address","name":"","type":"address"}],"stateMutability":"view","type":"function"},{"inputs":[{"internalType":"address","name":"_flightAddress","type":"address"},{"internalType":"string","name":"_carrierFlightNumber","type":"string"},{"internalType":"string","name":"_serviceProviderName","type":"string"}],"name":"registerFlights","outputs":[{"internalType":"uint256","name":"","type":"uint256"}],"stateMutability":"nonpayable","type":"function"},{"inputs":[{"internalType":"uint256","name":"_insuranceid","type":"uint256"},{"internalType":"address","name":"_oracleAddress","type":"address"},{"internalType":"string","name":"_jobid","type":"string"}],"name":"submitMyClaim","outputs":[],"stateMutability":"nonpayable","type":"function"},{"inputs":[{"internalType":"address","name":"_invoiceAddress","type":"address"},{"internalType":"string","name":"_invoiceNumber","type":"string"},{"internalType":"string","name":"_invoiceString","type":"string"}],"name":"tokenizeInvoices","outputs":[{"internalType":"uint256","name":"","type":"uint256"}],"stateMutability":"nonpayable","type":"function"}],"evm":{"bytecode":{"linkReferences":{},"object":"608060405260016004553480156200001657600080fd5b5060405162001d8b38038062001d8b8339810160408190526200003991620000be565b600280546001600160a01b0319166001600160a01b03831617905560098054336001600160a01b0319909116179055620000806006620000b5602090811b62000f1217901c565b620000976007620000b560201b62000f121760201c565b620000ae6008620000b560201b62000f121760201c565b50620000ee565b80546001019055565b600060208284031215620000d0578081fd5b81516001600160a01b0381168114620000e7578182fd5b9392505050565b611c8d80620000fe6000396000f3fe608060405234801561001057600080fd5b50600436106100a95760003560e01c80635996e024116100715780635996e0241461013a5780636e8cffa21461015f5780638da5cb5b14610187578063c4e49cd5146101b2578063ea0914c9146101c5578063eff0f592146101d857600080fd5b806304d35e30146100ae5780630ebc8da6146100d45780631b0dce08146100e95780632078a4b6146100fc57806329e999f41461010f575b600080fd5b6100c16100bc366004611733565b6101eb565b6040519081526020015b60405180910390f35b6100e76100e2366004611843565b610351565b005b6100c16100f73660046117a4565b6105b9565b6100c161010a366004611733565b6107b1565b6100c161011d366004611875565b600d60209081526000928352604080842090915290825290205481565b61014d610148366004611875565b61090b565b6040516100cb96959493929190611a46565b61017261016d366004611875565b610a68565b6040516100cb999897969594939291906119c5565b60095461019a906001600160a01b031681565b6040516001600160a01b0390911681526020016100cb565b6100e76101c03660046118a0565b610b55565b61014d6101d3366004611875565b610eb3565b6101726101e636600461182b565b610ee0565b6000806101f760065490565b9050610207600680546001019055565b6040805160c08101825282815260208082018781528284018790526001600160a01b038916606084018190524260808501523360a08501526000868152600b845285812091815290835293909320825181559251805192939261027092600185019201906115bc565b506040820151805161028c9160028401916020909101906115bc565b506060828101516003830180546001600160a01b03199081166001600160a01b0393841617909155608080860151600486015560a095860151600590950180549092169490921693909317909255604080518581526020810185905260119481019490945270119b1a59da1d08149959da5cdd195c9959607a1b60c0850152339084018190529083015242908201527f31e053a200c037c2a0f3a83d8e087ea8ca9962fc3f642170571a92abc949a13c9060e0015b60405180910390a1949350505050565b60008281526005602052604090205482906001600160a01b031633146103cf5760405162461bcd60e51b815260206004820152602860248201527f536f75726365206d75737420626520746865206f7261636c65206f6620746865604482015267081c995c5d595cdd60c21b60648201526084015b60405180910390fd5b60008181526005602052604080822080546001600160a01b03191690555182917fa40ad10b942505047c532a7399bf5eac2768b11b7155b40ec80309aea567f99891a26000838152600c602090815260408083208151610120810183528154815260018201546001600160a01b031693810193909352600281018054919284019161045990611bd6565b80601f016020809104026020016040519081016040528092919081815260200182805461048590611bd6565b80156104d25780601f106104a7576101008083540402835291602001916104d2565b820191906000526020600020905b8154815290600101906020018083116104b557829003601f168201915b505050918352505060038201546020820152600482015460408201526005808301546060830152600683015460809092019160ff169081111561052557634e487b7160e01b600052602160045260246000fd5b600581111561054457634e487b7160e01b600052602160045260246000fd5b81526007820154602082015260089091015460ff1615156040909101526001610100820152905060c0810183600581111561058f57634e487b7160e01b600052602160045260246000fd5b908160058111156105b057634e487b7160e01b600052602160045260246000fd5b90525050505050565b6000806105c560075490565b90506105d5600780546001019055565b604051806101200160405280828152602001886001600160a01b031681526020018781526020018681526020018581526020014281526020016001600581111561062f57634e487b7160e01b600052602160045260246000fd5b600581111561064e57634e487b7160e01b600052602160045260246000fd5b8152602080820186905260006040928301819052848152600a82528281206001600160a01b038c811683529083529083902084518155848301516001820180546001600160a01b03191691909316179091559183015180516106b692600285019201906115bc565b50606082015181600301556080820151816004015560a0820151816005015560c08201518160060160006101000a81548160ff0219169083600581111561070d57634e487b7160e01b600052602160045260246000fd5b021790555060e0828101516007830155610100909201516008909101805460ff19169115159190911790556040805183815260a0602082018190526010908201526f125b9cdd5c985b98d948109bdbdad95960821b60c08201523391810182905260608101919091524260808201527f528441e079e31bf6f9d9a91817469f3269aadfd0e41397f5139151f22d5bb541910160405180910390a19695505050505050565b6000806107bd60085490565b90506107cd600880546001019055565b6040805160c08101825282815260208082018781528284018790526001600160a01b038916606084018190524260808501523360a08501526000868152600e845285812091815290835293909320825181559251805192939261083692600185019201906115bc565b50604082015180516108529160028401916020909101906115bc565b506060828101516003830180546001600160a01b03199081166001600160a01b0393841617909155608080860151600486015560a095860151600590950180549092169490921693909317909255604080518581526020810185905260119481019490945270125b9d9bda58d948151bdad95b9a5e9959607a1b60c0850152339084018190529083015242908201527fb1efe517ff0b2fbf4529f4d90f972745caf1f37c0a7c6ccd7b2ff0f849b195419060e001610341565b600b6020908152600092835260408084209091529082529020805460018201805491929161093890611bd6565b80601f016020809104026020016040519081016040528092919081815260200182805461096490611bd6565b80156109b15780601f10610986576101008083540402835291602001916109b1565b820191906000526020600020905b81548152906001019060200180831161099457829003601f168201915b5050505050908060020180546109c690611bd6565b80601f01602080910402602001604051908101604052809291908181526020018280546109f290611bd6565b8015610a3f5780601f10610a1457610100808354040283529160200191610a3f565b820191906000526020600020905b815481529060010190602001808311610a2257829003601f168201915b505050506003830154600484015460059094015492936001600160a01b03918216939092501686565b600a60209081526000928352604080842090915290825290208054600182015460028301805492936001600160a01b0390921692610aa590611bd6565b80601f0160208091040260200160405190810160405280929190818152602001828054610ad190611bd6565b8015610b1e5780601f10610af357610100808354040283529160200191610b1e565b820191906000526020600020905b815481529060010190602001808311610b0157829003601f168201915b505050600384015460048501546005860154600687015460078801546008909801549697939692955090935060ff90811692911689565b6000838152600a6020908152604080832033845282528083208151610120810183528154815260018201546001600160a01b0316938101939093526002810180549192840191610ba490611bd6565b80601f0160208091040260200160405190810160405280929190818152602001828054610bd090611bd6565b8015610c1d5780601f10610bf257610100808354040283529160200191610c1d565b820191906000526020600020905b815481529060010190602001808311610c0057829003601f168201915b505050918352505060038201546020820152600482015460408201526005808301546060830152600683015460809092019160ff1690811115610c7057634e487b7160e01b600052602160045260246000fd5b6005811115610c8f57634e487b7160e01b600052602160045260246000fd5b8152600782015460208083019190915260089092015460ff1615156040909101528101519091506001600160a01b0316610d0b5760405162461bcd60e51b815260206004820181905260248201527f506f6c69637920486f6c646572204164647265737320697320696e76616c696460448201526064016103c6565b61010081015115610d505760405162461bcd60e51b815260206004820152600f60248201526e105b1c9958591e4818db185a5b5959608a1b60448201526064016103c6565b6000610d6c610d5e84610f1b565b3063075e46d360e11b610f38565b9050610da4604051806040016040528060058152602001641d5b9d1a5b60da1b815250836080015183610f5d9092919063ffffffff16565b6000610db8858366038d7ea4c68000610f80565b6000818152600c602090815260409182902086518155868201516001820180546001600160a01b0319166001600160a01b039092169190911790559186015180519394508693610e0e92600285019201906115bc565b50606082015181600301556080820151816004015560a0820151816005015560c08201518160060160006101000a81548160ff02191690836005811115610e6557634e487b7160e01b600052602160045260246000fd5b021790555060e08201516007820155610100909101516008909101805460ff19169115159190911790556000958652600d602090815260408088203389529091529095209490945550505050565b600e6020908152600092835260408084209091529082529020805460018201805491929161093890611bd6565b600c6020526000908152604090208054600182015460028301805492936001600160a01b0390921692610aa590611bd6565b80546001019055565b80516000908290610f2f5750600092915050565b50506020015190565b610f40611640565b610f48611640565b610f5481868686610f9f565b95945050505050565b6080830151610f6c9083610fdc565b6080830151610f7b9082610ff3565b505050565b6000610f9784848460016320214ca360e11b611003565b949350505050565b610fa7611640565b610fb7856080015161010061120f565b50509183526001600160a01b031660208301526001600160e01b031916604082015290565b610fe9826003835161127a565b610f7b828261134e565b610fff8260008361127a565b5050565b6004546040516bffffffffffffffffffffffff193060601b166020820152603481019190915260009060540160408051808303601f19018152918152815160209283012060045460608901526000818152600590935281832080546001600160a01b0319166001600160a01b038b16179055905190925082917fa6745906207afb96a5801b8e5711fd7b74c5780ce893a973806e179d675bbe2491a2600082600080886000015189602001518a604001518b606001518a8d60800151600001516040516024016110da989796959493929190611936565b60408051601f198184030181529181526020820180516001600160e01b03166001600160e01b0319909416939093179092526002549151630200057560e51b81529092506001600160a01b0390911690634000aea090611142908a908990869060040161199e565b602060405180830381600087803b15801561115c57600080fd5b505af1158015611170573d6000803e3d6000fd5b505050506040513d601f19601f82011682018060405250810190611194919061180b565b6111ec5760405162461bcd60e51b815260206004820152602360248201527f756e61626c6520746f207472616e73666572416e6443616c6c20746f206f7261604482015262636c6560e81b60648201526084016103c6565b6001600460008282546111ff9190611a9d565b9091555091979650505050505050565b60408051808201909152606081526000602082015261122f602083611c0b565b156112575761123f602083611c0b565b61124a906020611bbf565b6112549083611a9d565b91505b506020808301829052604080518085526000815283019091019052815b92915050565b6017811161129b576112958360e0600585901b16831761137c565b50505050565b60ff81116112c5576112b8836018611fe0600586901b161761137c565b50611295838260016113a1565b61ffff81116112f0576112e3836019611fe0600586901b161761137c565b50611295838260026113a1565b63ffffffff811161131d5761131083601a611fe0600586901b161761137c565b50611295838260046113a1565b67ffffffffffffffff8111610f7b5761134183601b611fe0600586901b161761137c565b50611295838260086113a1565b604080518082019091526060815260006020820152611375838460000151518485516113c7565b9392505050565b60408051808201909152606081526000602082015261137583846000015151846114b1565b604080518082019091526060815260006020820152610f9784856000015151858561150d565b60408051808201909152606081526000602082015282518211156113ea57600080fd5b60208501516113f98386611a9d565b111561142c5761142c8561141c876020015187866114179190611a9d565b61158e565b611427906002611ba0565b6115a5565b60008086518051876020830101935080888701111561144b5787860182525b505050602084015b6020841061148b578051825261146a602083611a9d565b9150611477602082611a9d565b9050611484602085611bbf565b9350611453565b51815160001960208690036101000a019081169019919091161790525083949350505050565b604080518082019091526060815260006020820152836020015183106114e6576114e684856020015160026114279190611ba0565b835180516020858301018481535080851415611503576001810182525b5093949350505050565b60408051808201909152606081526000602082015260208501516115318584611a9d565b1115611545576115458561141c8685611a9d565b6000600161155584610100611af8565b61155f9190611bbf565b90508551838682010185831982511617815250805184870111156115835783860181525b509495945050505050565b60008183111561159f575081611274565b50919050565b81516115b1838361120f565b50611295838261134e565b8280546115c890611bd6565b90600052602060002090601f0160209004810192826115ea5760008555611630565b82601f1061160357805160ff1916838001178555611630565b82800160010185558215611630579182015b82811115611630578251825591602001919060010190611615565b5061163c92915061167b565b5090565b6040805160a0810182526000808252602080830182905282840182905260608084018390528451808601909552845283015290608082015290565b5b8082111561163c576000815560010161167c565b80356001600160a01b03811681146116a757600080fd5b919050565b600082601f8301126116bc578081fd5b813567ffffffffffffffff808211156116d7576116d7611c41565b604051601f8301601f19908116603f011681019082821181831017156116ff576116ff611c41565b81604052838152866020858801011115611717578485fd5b8360208701602083013792830160200193909352509392505050565b600080600060608486031215611747578283fd5b61175084611690565b9250602084013567ffffffffffffffff8082111561176c578384fd5b611778878388016116ac565b9350604086013591508082111561178d578283fd5b5061179a868287016116ac565b9150509250925092565b600080600080600060a086880312156117bb578081fd5b6117c486611690565b9450602086013567ffffffffffffffff8111156117df578182fd5b6117eb888289016116ac565b959895975050505060408401359360608101359360809091013592509050565b60006020828403121561181c578081fd5b81518015158114611375578182fd5b60006020828403121561183c578081fd5b5035919050565b60008060408385031215611855578182fd5b8235915060208301356006811061186a578182fd5b809150509250929050565b60008060408385031215611887578182fd5b8235915061189760208401611690565b90509250929050565b6000806000606084860312156118b4578283fd5b833592506118c460208501611690565b9150604084013567ffffffffffffffff8111156118df578182fd5b61179a868287016116ac565b60008151808452815b81811015611910576020818501810151868301820152016118f4565b818111156119215782602083870101525b50601f01601f19169290920160200192915050565b6001600160a01b0389811682526020820189905260408201889052861660608201526001600160e01b03198516608082015260a0810184905260c0810183905261010060e0820181905260009061198f838201856118eb565b9b9a5050505050505050505050565b60018060a01b0384168152826020820152606060408201526000610f5460608301846118eb565b8981526001600160a01b0389166020820152610120604082018190526000906119f08382018b6118eb565b9150508760608301528660808301528560a083015260068510611a2357634e487b7160e01b600052602160045260246000fd5b8460c08301528360e08301528215156101008301529a9950505050505050505050565b86815260c060208201526000611a5f60c08301886118eb565b8281036040840152611a7181886118eb565b6001600160a01b03968716606085015260808401959095525050921660a0909201919091529392505050565b60008219821115611ab057611ab0611c2b565b500190565b600181815b80851115611af0578160001904821115611ad657611ad6611c2b565b80851615611ae357918102915b93841c9390800290611aba565b509250929050565b60006113758383600082611b0e57506001611274565b81611b1b57506000611274565b8160018114611b315760028114611b3b57611b57565b6001915050611274565b60ff841115611b4c57611b4c611c2b565b50506001821b611274565b5060208310610133831016604e8410600b8410161715611b7a575081810a611274565b611b848383611ab5565b8060001904821115611b9857611b98611c2b565b029392505050565b6000816000190483118215151615611bba57611bba611c2b565b500290565b600082821015611bd157611bd1611c2b565b500390565b600181811c90821680611bea57607f821691505b6020821081141561159f57634e487b7160e01b600052602260045260246000fd5b600082611c2657634e487b7160e01b81526012600452602481fd5b500690565b634e487b7160e01b600052601160045260246000fd5b634e487b7160e01b600052604160045260246000fdfea264697066735822122000b17b230d8527ad74cd6a5b81992cd61afa0ca57a342a747e6829da71b6784f64736f6c63430008040033","opcodes":"PUSH1 0x80 PUSH1 0x40 MSTORE PUSH1 0x1 PUSH1 0x4 SSTORE CALLVALUE DUP1 ISZERO PUSH3 0x16 JUMPI PUSH1 0x0 DUP1 REVERT JUMPDEST POP PUSH1 0x40 MLOAD PUSH3 0x1D8B CODESIZE SUB DUP1 PUSH3 0x1D8B DUP4 CODECOPY DUP2 ADD PUSH1 0x40 DUP2 SWAP1 MSTORE PUSH3 0x39 SWAP2 PUSH3 0xBE JUMP JUMPDEST PUSH1 0x2 DUP1 SLOAD PUSH1 0x1 PUSH1 0x1 PUSH1 0xA0 SHL SUB NOT AND PUSH1 0x1 PUSH1 0x1 PUSH1 0xA0 SHL SUB DUP4 AND OR SWAP1 SSTORE PUSH1 0x9 DUP1 SLOAD CALLER PUSH1 0x1 PUSH1 0x1 PUSH1 0xA0 SHL SUB NOT SWAP1 SWAP2 AND OR SWAP1 SSTORE PUSH3 0x80 PUSH1 0x6 PUSH3 0xB5 PUSH1 0x20 SWAP1 DUP2 SHL PUSH3 0xF12 OR SWAP1 SHR JUMP JUMPDEST PUSH3 0x97 PUSH1 0x7 PUSH3 0xB5 PUSH1 0x20 SHL PUSH3 0xF12 OR PUSH1 0x20 SHR JUMP JUMPDEST PUSH3 0xAE PUSH1 0x8 PUSH3 0xB5 PUSH1 0x20 SHL PUSH3 0xF12 OR PUSH1 0x20 SHR JUMP JUMPDEST POP PUSH3 0xEE JUMP JUMPDEST DUP1 SLOAD PUSH1 0x1 ADD SWAP1 SSTORE JUMP JUMPDEST PUSH1 0x0 PUSH1 0x20 DUP3 DUP5 SUB SLT ISZERO PUSH3 0xD0 JUMPI DUP1 DUP2 REVERT JUMPDEST DUP2 MLOAD PUSH1 0x1 PUSH1 0x1 PUSH1 0xA0 SHL SUB DUP2 AND DUP2 EQ PUSH3 0xE7 JUMPI DUP2 DUP3 REVERT JUMPDEST SWAP4 SWAP3 POP POP POP JUMP JUMPDEST PUSH2 0x1C8D DUP1 PUSH3 0xFE PUSH1 0x0 CODECOPY PUSH1 0x0 RETURN INVALID PUSH1 0x80 PUSH1 0x40 MSTORE CALLVALUE DUP1 ISZERO PUSH2 0x10 JUMPI PUSH1 0x0 DUP1 REVERT JUMPDEST POP PUSH1 0x4 CALLDATASIZE LT PUSH2 0xA9 JUMPI PUSH1 0x0 CALLDATALOAD PUSH1 0xE0 SHR DUP1 PUSH4 0x5996E024 GT PUSH2 0x71 JUMPI DUP1 PUSH4 0x5996E024 EQ PUSH2 0x13A JUMPI DUP1 PUSH4 0x6E8CFFA2 EQ PUSH2 0x15F JUMPI DUP1 PUSH4 0x8DA5CB5B EQ PUSH2 0x187 JUMPI DUP1 PUSH4 0xC4E49CD5 EQ PUSH2 0x1B2 JUMPI DUP1 PUSH4 0xEA0914C9 EQ PUSH2 0x1C5 JUMPI DUP1 PUSH4 0xEFF0F592 EQ PUSH2 0x1D8 JUMPI PUSH1 0x0 DUP1 REVERT JUMPDEST DUP1 PUSH4 0x4D35E30 EQ PUSH2 0xAE JUMPI DUP1 PUSH4 0xEBC8DA6 EQ PUSH2 0xD4 JUMPI DUP1 PUSH4 0x1B0DCE08 EQ PUSH2 0xE9 JUMPI DUP1 PUSH4 0x2078A4B6 EQ PUSH2 0xFC JUMPI DUP1 PUSH4 0x29E999F4 EQ PUSH2 0x10F JUMPI JUMPDEST PUSH1 0x0 DUP1 REVERT JUMPDEST PUSH2 0xC1 PUSH2 0xBC CALLDATASIZE PUSH1 0x4 PUSH2 0x1733 JUMP JUMPDEST PUSH2 0x1EB JUMP JUMPDEST PUSH1 0x40 MLOAD SWAP1 DUP2 MSTORE PUSH1 0x20 ADD JUMPDEST PUSH1 0x40 MLOAD DUP1 SWAP2 SUB SWAP1 RETURN JUMPDEST PUSH2 0xE7 PUSH2 0xE2 CALLDATASIZE PUSH1 0x4 PUSH2 0x1843 JUMP JUMPDEST PUSH2 0x351 JUMP JUMPDEST STOP JUMPDEST PUSH2 0xC1 PUSH2 0xF7 CALLDATASIZE PUSH1 0x4 PUSH2 0x17A4 JUMP JUMPDEST PUSH2 0x5B9 JUMP JUMPDEST PUSH2 0xC1 PUSH2 0x10A CALLDATASIZE PUSH1 0x4 PUSH2 0x1733 JUMP JUMPDEST PUSH2 0x7B1 JUMP JUMPDEST PUSH2 0xC1 PUSH2 0x11D CALLDATASIZE PUSH1 0x4 PUSH2 0x1875 JUMP JUMPDEST PUSH1 0xD PUSH1 0x20 SWAP1 DUP2 MSTORE PUSH1 0x0 SWAP3 DUP4 MSTORE PUSH1 0x40 DUP1 DUP5 KECCAK256 SWAP1 SWAP2 MSTORE SWAP1 DUP3 MSTORE SWAP1 KECCAK256 SLOAD DUP2 JUMP JUMPDEST PUSH2 0x14D PUSH2 0x148 CALLDATASIZE PUSH1 0x4 PUSH2 0x1875 JUMP JUMPDEST PUSH2 0x90B JUMP JUMPDEST PUSH1 0x40 MLOAD PUSH2 0xCB SWAP7 SWAP6 SWAP5 SWAP4 SWAP3 SWAP2 SWAP1 PUSH2 0x1A46 JUMP JUMPDEST PUSH2 0x172 PUSH2 0x16D CALLDATASIZE PUSH1 0x4 PUSH2 0x1875 JUMP JUMPDEST PUSH2 0xA68 JUMP JUMPDEST PUSH1 0x40 MLOAD PUSH2 0xCB SWAP10 SWAP9 SWAP8 SWAP7 SWAP6 SWAP5 SWAP4 SWAP3 SWAP2 SWAP1 PUSH2 0x19C5 JUMP JUMPDEST PUSH1 0x9 SLOAD PUSH2 0x19A SWAP1 PUSH1 0x1 PUSH1 0x1 PUSH1 0xA0 SHL SUB AND DUP2 JUMP JUMPDEST PUSH1 0x40 MLOAD PUSH1 0x1 PUSH1 0x1 PUSH1 0xA0 SHL SUB SWAP1 SWAP2 AND DUP2 MSTORE PUSH1 0x20 ADD PUSH2 0xCB JUMP JUMPDEST PUSH2 0xE7 PUSH2 0x1C0 CALLDATASIZE PUSH1 0x4 PUSH2 0x18A0 JUMP JUMPDEST PUSH2 0xB55 JUMP JUMPDEST PUSH2 0x14D PUSH2 0x1D3 CALLDATASIZE PUSH1 0x4 PUSH2 0x1875 JUMP JUMPDEST PUSH2 0xEB3 JUMP JUMPDEST PUSH2 0x172 PUSH2 0x1E6 CALLDATASIZE PUSH1 0x4 PUSH2 0x182B JUMP JUMPDEST PUSH2 0xEE0 JUMP JUMPDEST PUSH1 0x0 DUP1 PUSH2 0x1F7 PUSH1 0x6 SLOAD SWAP1 JUMP JUMPDEST SWAP1 POP PUSH2 0x207 PUSH1 0x6 DUP1 SLOAD PUSH1 0x1 ADD SWAP1 SSTORE JUMP JUMPDEST PUSH1 0x40 DUP1 MLOAD PUSH1 0xC0 DUP2 ADD DUP3 MSTORE DUP3 DUP2 MSTORE PUSH1 0x20 DUP1 DUP3 ADD DUP8 DUP2 MSTORE DUP3 DUP5 ADD DUP8 SWAP1 MSTORE PUSH1 0x1 PUSH1 0x1 PUSH1 0xA0 SHL SUB DUP10 AND PUSH1 0x60 DUP5 ADD DUP2 SWAP1 MSTORE TIMESTAMP PUSH1 0x80 DUP6 ADD MSTORE CALLER PUSH1 0xA0 DUP6 ADD MSTORE PUSH1 0x0 DUP7 DUP2 MSTORE PUSH1 0xB DUP5 MSTORE DUP6 DUP2 KECCAK256 SWAP2 DUP2 MSTORE SWAP1 DUP4 MSTORE SWAP4 SWAP1 SWAP4 KECCAK256 DUP3 MLOAD DUP2 SSTORE SWAP3 MLOAD DUP1 MLOAD SWAP3 SWAP4 SWAP3 PUSH2 0x270 SWAP3 PUSH1 0x1 DUP6 ADD SWAP3 ADD SWAP1 PUSH2 0x15BC JUMP JUMPDEST POP PUSH1 0x40 DUP3 ADD MLOAD DUP1 MLOAD PUSH2 0x28C SWAP2 PUSH1 0x2 DUP5 ADD SWAP2 PUSH1 0x20 SWAP1 SWAP2 ADD SWAP1 PUSH2 0x15BC JUMP JUMPDEST POP PUSH1 0x60 DUP3 DUP2 ADD MLOAD PUSH1 0x3 DUP4 ADD DUP1 SLOAD PUSH1 0x1 PUSH1 0x1 PUSH1 0xA0 SHL SUB NOT SWAP1 DUP2 AND PUSH1 0x1 PUSH1 0x1 PUSH1 0xA0 SHL SUB SWAP4 DUP5 AND OR SWAP1 SWAP2 SSTORE PUSH1 0x80 DUP1 DUP7 ADD MLOAD PUSH1 0x4 DUP7 ADD SSTORE PUSH1 0xA0 SWAP6 DUP7 ADD MLOAD PUSH1 0x5 SWAP1 SWAP6 ADD DUP1 SLOAD SWAP1 SWAP3 AND SWAP5 SWAP1 SWAP3 AND SWAP4 SWAP1 SWAP4 OR SWAP1 SWAP3 SSTORE PUSH1 0x40 DUP1 MLOAD DUP6 DUP2 MSTORE PUSH1 0x20 DUP2 ADD DUP6 SWAP1 MSTORE PUSH1 0x11 SWAP5 DUP2 ADD SWAP5 SWAP1 SWAP5 MSTORE PUSH17 0x119B1A59DA1D08149959DA5CDD195C9959 PUSH1 0x7A SHL PUSH1 0xC0 DUP6 ADD MSTORE CALLER SWAP1 DUP5 ADD DUP2 SWAP1 MSTORE SWAP1 DUP4 ADD MSTORE TIMESTAMP SWAP1 DUP3 ADD MSTORE PUSH32 0x31E053A200C037C2A0F3A83D8E087EA8CA9962FC3F642170571A92ABC949A13C SWAP1 PUSH1 0xE0 ADD JUMPDEST PUSH1 0x40 MLOAD DUP1 SWAP2 SUB SWAP1 LOG1 SWAP5 SWAP4 POP POP POP POP JUMP JUMPDEST PUSH1 0x0 DUP3 DUP2 MSTORE PUSH1 0x5 PUSH1 0x20 MSTORE PUSH1 0x40 SWAP1 KECCAK256 SLOAD DUP3 SWAP1 PUSH1 0x1 PUSH1 0x1 PUSH1 0xA0 SHL SUB AND CALLER EQ PUSH2 0x3CF JUMPI PUSH1 0x40 MLOAD PUSH3 0x461BCD PUSH1 0xE5 SHL DUP2 MSTORE PUSH1 0x20 PUSH1 0x4 DUP3 ADD MSTORE PUSH1 0x28 PUSH1 0x24 DUP3 ADD MSTORE PUSH32 0x536F75726365206D75737420626520746865206F7261636C65206F6620746865 PUSH1 0x44 DUP3 ADD MSTORE PUSH8 0x81C995C5D595CDD PUSH1 0xC2 SHL PUSH1 0x64 DUP3 ADD MSTORE PUSH1 0x84 ADD JUMPDEST PUSH1 0x40 MLOAD DUP1 SWAP2 SUB SWAP1 REVERT JUMPDEST PUSH1 0x0 DUP2 DUP2 MSTORE PUSH1 0x5 PUSH1 0x20 MSTORE PUSH1 0x40 DUP1 DUP3 KECCAK256 DUP1 SLOAD PUSH1 0x1 PUSH1 0x1 PUSH1 0xA0 SHL SUB NOT AND SWAP1 SSTORE MLOAD DUP3 SWAP2 PUSH32 0xA40AD10B942505047C532A7399BF5EAC2768B11B7155B40EC80309AEA567F998 SWAP2 LOG2 PUSH1 0x0 DUP4 DUP2 MSTORE PUSH1 0xC PUSH1 0x20 SWAP1 DUP2 MSTORE PUSH1 0x40 DUP1 DUP4 KECCAK256 DUP2 MLOAD PUSH2 0x120 DUP2 ADD DUP4 MSTORE DUP2 SLOAD DUP2 MSTORE PUSH1 0x1 DUP3 ADD SLOAD PUSH1 0x1 PUSH1 0x1 PUSH1 0xA0 SHL SUB AND SWAP4 DUP2 ADD SWAP4 SWAP1 SWAP4 MSTORE PUSH1 0x2 DUP2 ADD DUP1 SLOAD SWAP2 SWAP3 DUP5 ADD SWAP2 PUSH2 0x459 SWAP1 PUSH2 0x1BD6 JUMP JUMPDEST DUP1 PUSH1 0x1F ADD PUSH1 0x20 DUP1 SWAP2 DIV MUL PUSH1 0x20 ADD PUSH1 0x40 MLOAD SWAP1 DUP2 ADD PUSH1 0x40 MSTORE DUP1 SWAP3 SWAP2 SWAP1 DUP2 DUP2 MSTORE PUSH1 0x20 ADD DUP3 DUP1 SLOAD PUSH2 0x485 SWAP1 PUSH2 0x1BD6 JUMP JUMPDEST DUP1 ISZERO PUSH2 0x4D2 JUMPI DUP1 PUSH1 0x1F LT PUSH2 0x4A7 JUMPI PUSH2 0x100 DUP1 DUP4 SLOAD DIV MUL DUP4 MSTORE SWAP2 PUSH1 0x20 ADD SWAP2 PUSH2 0x4D2 JUMP JUMPDEST DUP3 ADD SWAP2 SWAP1 PUSH1 0x0 MSTORE PUSH1 0x20 PUSH1 0x0 KECCAK256 SWAP1 JUMPDEST DUP2 SLOAD DUP2 MSTORE SWAP1 PUSH1 0x1 ADD SWAP1 PUSH1 0x20 ADD DUP1 DUP4 GT PUSH2 0x4B5 JUMPI DUP3 SWAP1 SUB PUSH1 0x1F AND DUP3 ADD SWAP2 JUMPDEST POP POP POP SWAP2 DUP4 MSTORE POP POP PUSH1 0x3 DUP3 ADD SLOAD PUSH1 0x20 DUP3 ADD MSTORE PUSH1 0x4 DUP3 ADD SLOAD PUSH1 0x40 DUP3 ADD MSTORE PUSH1 0x5 DUP1 DUP4 ADD SLOAD PUSH1 0x60 DUP4 ADD MSTORE PUSH1 0x6 DUP4 ADD SLOAD PUSH1 0x80 SWAP1 SWAP3 ADD SWAP2 PUSH1 0xFF AND SWAP1 DUP2 GT ISZERO PUSH2 0x525 JUMPI PUSH4 0x4E487B71 PUSH1 0xE0 SHL PUSH1 0x0 MSTORE PUSH1 0x21 PUSH1 0x4 MSTORE PUSH1 0x24 PUSH1 0x0 REVERT JUMPDEST PUSH1 0x5 DUP2 GT ISZERO PUSH2 0x544 JUMPI PUSH4 0x4E487B71 PUSH1 0xE0 SHL PUSH1 0x0 MSTORE PUSH1 0x21 PUSH1 0x4 MSTORE PUSH1 0x24 PUSH1 0x0 REVERT JUMPDEST DUP2 MSTORE PUSH1 0x7 DUP3 ADD SLOAD PUSH1 0x20 DUP3 ADD MSTORE PUSH1 0x8 SWAP1 SWAP2 ADD SLOAD PUSH1 0xFF AND ISZERO ISZERO PUSH1 0x40 SWAP1 SWAP2 ADD MSTORE PUSH1 0x1 PUSH2 0x100 DUP3 ADD MSTORE SWAP1 POP PUSH1 0xC0 DUP2 ADD DUP4 PUSH1 0x5 DUP2 GT ISZERO PUSH2 0x58F JUMPI PUSH4 0x4E487B71 PUSH1 0xE0 SHL PUSH1 0x0 MSTORE PUSH1 0x21 PUSH1 0x4 MSTORE PUSH1 0x24 PUSH1 0x0 REVERT JUMPDEST SWAP1 DUP2 PUSH1 0x5 DUP2 GT ISZERO PUSH2 0x5B0 JUMPI PUSH4 0x4E487B71 PUSH1 0xE0 SHL PUSH1 0x0 MSTORE PUSH1 0x21 PUSH1 0x4 MSTORE PUSH1 0x24 PUSH1 0x0 REVERT JUMPDEST SWAP1 MSTORE POP POP POP POP POP JUMP JUMPDEST PUSH1 0x0 DUP1 PUSH2 0x5C5 PUSH1 0x7 SLOAD SWAP1 JUMP JUMPDEST SWAP1 POP PUSH2 0x5D5 PUSH1 0x7 DUP1 SLOAD PUSH1 0x1 ADD SWAP1 SSTORE JUMP JUMPDEST PUSH1 0x40 MLOAD DUP1 PUSH2 0x120 ADD PUSH1 0x40 MSTORE DUP1 DUP3 DUP2 MSTORE PUSH1 0x20 ADD DUP9 PUSH1 0x1 PUSH1 0x1 PUSH1 0xA0 SHL SUB AND DUP2 MSTORE PUSH1 0x20 ADD DUP8 DUP2 MSTORE PUSH1 0x20 ADD DUP7 DUP2 MSTORE PUSH1 0x20 ADD DUP6 DUP2 MSTORE PUSH1 0x20 ADD TIMESTAMP DUP2 MSTORE PUSH1 0x20 ADD PUSH1 0x1 PUSH1 0x5 DUP2 GT ISZERO PUSH2 0x62F JUMPI PUSH4 0x4E487B71 PUSH1 0xE0 SHL PUSH1 0x0 MSTORE PUSH1 0x21 PUSH1 0x4 MSTORE PUSH1 0x24 PUSH1 0x0 REVERT JUMPDEST PUSH1 0x5 DUP2 GT ISZERO PUSH2 0x64E JUMPI PUSH4 0x4E487B71 PUSH1 0xE0 SHL PUSH1 0x0 MSTORE PUSH1 0x21 PUSH1 0x4 MSTORE PUSH1 0x24 PUSH1 0x0 REVERT JUMPDEST DUP2 MSTORE PUSH1 0x20 DUP1 DUP3 ADD DUP7 SWAP1 MSTORE PUSH1 0x0 PUSH1 0x40 SWAP3 DUP4 ADD DUP2 SWAP1 MSTORE DUP5 DUP2 MSTORE PUSH1 0xA DUP3 MSTORE DUP3 DUP2 KECCAK256 PUSH1 0x1 PUSH1 0x1 PUSH1 0xA0 SHL SUB DUP13 DUP2 AND DUP4 MSTORE SWAP1 DUP4 MSTORE SWAP1 DUP4 SWAP1 KECCAK256 DUP5 MLOAD DUP2 SSTORE DUP5 DUP4 ADD MLOAD PUSH1 0x1 DUP3 ADD DUP1 SLOAD PUSH1 0x1 PUSH1 0x1 PUSH1 0xA0 SHL SUB NOT AND SWAP2 SWAP1 SWAP4 AND OR SWAP1 SWAP2 SSTORE SWAP2 DUP4 ADD MLOAD DUP1 MLOAD PUSH2 0x6B6 SWAP3 PUSH1 0x2 DUP6 ADD SWAP3 ADD SWAP1 PUSH2 0x15BC JUMP JUMPDEST POP PUSH1 0x60 DUP3 ADD MLOAD DUP2 PUSH1 0x3 ADD SSTORE PUSH1 0x80 DUP3 ADD MLOAD DUP2 PUSH1 0x4 ADD SSTORE PUSH1 0xA0 DUP3 ADD MLOAD DUP2 PUSH1 0x5 ADD SSTORE PUSH1 0xC0 DUP3 ADD MLOAD DUP2 PUSH1 0x6 ADD PUSH1 0x0 PUSH2 0x100 EXP DUP2 SLOAD DUP2 PUSH1 0xFF MUL NOT AND SWAP1 DUP4 PUSH1 0x5 DUP2 GT ISZERO PUSH2 0x70D JUMPI PUSH4 0x4E487B71 PUSH1 0xE0 SHL PUSH1 0x0 MSTORE PUSH1 0x21 PUSH1 0x4 MSTORE PUSH1 0x24 PUSH1 0x0 REVERT JUMPDEST MUL OR SWAP1 SSTORE POP PUSH1 0xE0 DUP3 DUP2 ADD MLOAD PUSH1 0x7 DUP4 ADD SSTORE PUSH2 0x100 SWAP1 SWAP3 ADD MLOAD PUSH1 0x8 SWAP1 SWAP2 ADD DUP1 SLOAD PUSH1 0xFF NOT AND SWAP2 ISZERO ISZERO SWAP2 SWAP1 SWAP2 OR SWAP1 SSTORE PUSH1 0x40 DUP1 MLOAD DUP4 DUP2 MSTORE PUSH1 0xA0 PUSH1 0x20 DUP3 ADD DUP2 SWAP1 MSTORE PUSH1 0x10 SWAP1 DUP3 ADD MSTORE PUSH16 0x125B9CDD5C985B98D948109BDBDAD959 PUSH1 0x82 SHL PUSH1 0xC0 DUP3 ADD MSTORE CALLER SWAP2 DUP2 ADD DUP3 SWAP1 MSTORE PUSH1 0x60 DUP2 ADD SWAP2 SWAP1 SWAP2 MSTORE TIMESTAMP PUSH1 0x80 DUP3 ADD MSTORE PUSH32 0x528441E079E31BF6F9D9A91817469F3269AADFD0E41397F5139151F22D5BB541 SWAP2 ADD PUSH1 0x40 MLOAD DUP1 SWAP2 SUB SWAP1 LOG1 SWAP7 SWAP6 POP POP POP POP POP POP JUMP JUMPDEST PUSH1 0x0 DUP1 PUSH2 0x7BD PUSH1 0x8 SLOAD SWAP1 JUMP JUMPDEST SWAP1 POP PUSH2 0x7CD PUSH1 0x8 DUP1 SLOAD PUSH1 0x1 ADD SWAP1 SSTORE JUMP JUMPDEST PUSH1 0x40 DUP1 MLOAD PUSH1 0xC0 DUP2 ADD DUP3 MSTORE DUP3 DUP2 MSTORE PUSH1 0x20 DUP1 DUP3 ADD DUP8 DUP2 MSTORE DUP3 DUP5 ADD DUP8 SWAP1 MSTORE PUSH1 0x1 PUSH1 0x1 PUSH1 0xA0 SHL SUB DUP10 AND PUSH1 0x60 DUP5 ADD DUP2 SWAP1 MSTORE TIMESTAMP PUSH1 0x80 DUP6 ADD MSTORE CALLER PUSH1 0xA0 DUP6 ADD MSTORE PUSH1 0x0 DUP7 DUP2 MSTORE PUSH1 0xE DUP5 MSTORE DUP6 DUP2 KECCAK256 SWAP2 DUP2 MSTORE SWAP1 DUP4 MSTORE SWAP4 SWAP1 SWAP4 KECCAK256 DUP3 MLOAD DUP2 SSTORE SWAP3 MLOAD DUP1 MLOAD SWAP3 SWAP4 SWAP3 PUSH2 0x836 SWAP3 PUSH1 0x1 DUP6 ADD SWAP3 ADD SWAP1 PUSH2 0x15BC JUMP JUMPDEST POP PUSH1 0x40 DUP3 ADD MLOAD DUP1 MLOAD PUSH2 0x852 SWAP2 PUSH1 0x2 DUP5 ADD SWAP2 PUSH1 0x20 SWAP1 SWAP2 ADD SWAP1 PUSH2 0x15BC JUMP JUMPDEST POP PUSH1 0x60 DUP3 DUP2 ADD MLOAD PUSH1 0x3 DUP4 ADD DUP1 SLOAD PUSH1 0x1 PUSH1 0x1 PUSH1 0xA0 SHL SUB NOT SWAP1 DUP2 AND PUSH1 0x1 PUSH1 0x1 PUSH1 0xA0 SHL SUB SWAP4 DUP5 AND OR SWAP1 SWAP2 SSTORE PUSH1 0x80 DUP1 DUP7 ADD MLOAD PUSH1 0x4 DUP7 ADD SSTORE PUSH1 0xA0 SWAP6 DUP7 ADD MLOAD PUSH1 0x5 SWAP1 SWAP6 ADD DUP1 SLOAD SWAP1 SWAP3 AND SWAP5 SWAP1 SWAP3 AND SWAP4 SWAP1 SWAP4 OR SWAP1 SWAP3 SSTORE PUSH1 0x40 DUP1 MLOAD DUP6 DUP2 MSTORE PUSH1 0x20 DUP2 ADD DUP6 SWAP1 MSTORE PUSH1 0x11 SWAP5 DUP2 ADD SWAP5 SWAP1 SWAP5 MSTORE PUSH17 0x125B9D9BDA58D948151BDAD95B9A5E9959 PUSH1 0x7A SHL PUSH1 0xC0 DUP6 ADD MSTORE CALLER SWAP1 DUP5 ADD DUP2 SWAP1 MSTORE SWAP1 DUP4 ADD MSTORE TIMESTAMP SWAP1 DUP3 ADD MSTORE PUSH32 0xB1EFE517FF0B2FBF4529F4D90F972745CAF1F37C0A7C6CCD7B2FF0F849B19541 SWAP1 PUSH1 0xE0 ADD PUSH2 0x341 JUMP JUMPDEST PUSH1 0xB PUSH1 0x20 SWAP1 DUP2 MSTORE PUSH1 0x0 SWAP3 DUP4 MSTORE PUSH1 0x40 DUP1 DUP5 KECCAK256 SWAP1 SWAP2 MSTORE SWAP1 DUP3 MSTORE SWAP1 KECCAK256 DUP1 SLOAD PUSH1 0x1 DUP3 ADD DUP1 SLOAD SWAP2 SWAP3 SWAP2 PUSH2 0x938 SWAP1 PUSH2 0x1BD6 JUMP JUMPDEST DUP1 PUSH1 0x1F ADD PUSH1 0x20 DUP1 SWAP2 DIV MUL PUSH1 0x20 ADD PUSH1 0x40 MLOAD SWAP1 DUP2 ADD PUSH1 0x40 MSTORE DUP1 SWAP3 SWAP2 SWAP1 DUP2 DUP2 MSTORE PUSH1 0x20 ADD DUP3 DUP1 SLOAD PUSH2 0x964 SWAP1 PUSH2 0x1BD6 JUMP JUMPDEST DUP1 ISZERO PUSH2 0x9B1 JUMPI DUP1 PUSH1 0x1F LT PUSH2 0x986 JUMPI PUSH2 0x100 DUP1 DUP4 SLOAD DIV MUL DUP4 MSTORE SWAP2 PUSH1 0x20 ADD SWAP2 PUSH2 0x9B1 JUMP JUMPDEST DUP3 ADD SWAP2 SWAP1 PUSH1 0x0 MSTORE PUSH1 0x20 PUSH1 0x0 KECCAK256 SWAP1 JUMPDEST DUP2 SLOAD DUP2 MSTORE SWAP1 PUSH1 0x1 ADD SWAP1 PUSH1 0x20 ADD DUP1 DUP4 GT PUSH2 0x994 JUMPI DUP3 SWAP1 SUB PUSH1 0x1F AND DUP3 ADD SWAP2 JUMPDEST POP POP POP POP POP SWAP1 DUP1 PUSH1 0x2 ADD DUP1 SLOAD PUSH2 0x9C6 SWAP1 PUSH2 0x1BD6 JUMP JUMPDEST DUP1 PUSH1 0x1F ADD PUSH1 0x20 DUP1 SWAP2 DIV MUL PUSH1 0x20 ADD PUSH1 0x40 MLOAD SWAP1 DUP2 ADD PUSH1 0x40 MSTORE DUP1 SWAP3 SWAP2 SWAP1 DUP2 DUP2 MSTORE PUSH1 0x20 ADD DUP3 DUP1 SLOAD PUSH2 0x9F2 SWAP1 PUSH2 0x1BD6 JUMP JUMPDEST DUP1 ISZERO PUSH2 0xA3F JUMPI DUP1 PUSH1 0x1F LT PUSH2 0xA14 JUMPI PUSH2 0x100 DUP1 DUP4 SLOAD DIV MUL DUP4 MSTORE SWAP2 PUSH1 0x20 ADD SWAP2 PUSH2 0xA3F JUMP JUMPDEST DUP3 ADD SWAP2 SWAP1 PUSH1 0x0 MSTORE PUSH1 0x20 PUSH1 0x0 KECCAK256 SWAP1 JUMPDEST DUP2 SLOAD DUP2 MSTORE SWAP1 PUSH1 0x1 ADD SWAP1 PUSH1 0x20 ADD DUP1 DUP4 GT PUSH2 0xA22 JUMPI DUP3 SWAP1 SUB PUSH1 0x1F AND DUP3 ADD SWAP2 JUMPDEST POP POP POP POP PUSH1 0x3 DUP4 ADD SLOAD PUSH1 0x4 DUP5 ADD SLOAD PUSH1 0x5 SWAP1 SWAP5 ADD SLOAD SWAP3 SWAP4 PUSH1 0x1 PUSH1 0x1 PUSH1 0xA0 SHL SUB SWAP2 DUP3 AND SWAP4 SWAP1 SWAP3 POP AND DUP7 JUMP JUMPDEST PUSH1 0xA PUSH1 0x20 SWAP1 DUP2 MSTORE PUSH1 0x0 SWAP3 DUP4 MSTORE PUSH1 0x40 DUP1 DUP5 KECCAK256 SWAP1 SWAP2 MSTORE SWAP1 DUP3 MSTORE SWAP1 KECCAK256 DUP1 SLOAD PUSH1 0x1 DUP3 ADD SLOAD PUSH1 0x2 DUP4 ADD DUP1 SLOAD SWAP3 SWAP4 PUSH1 0x1 PUSH1 0x1 PUSH1 0xA0 SHL SUB SWAP1 SWAP3 AND SWAP3 PUSH2 0xAA5 SWAP1 PUSH2 0x1BD6 JUMP JUMPDEST DUP1 PUSH1 0x1F ADD PUSH1 0x20 DUP1 SWAP2 DIV MUL PUSH1 0x20 ADD PUSH1 0x40 MLOAD SWAP1 DUP2 ADD PUSH1 0x40 MSTORE DUP1 SWAP3 SWAP2 SWAP1 DUP2 DUP2 MSTORE PUSH1 0x20 ADD DUP3 DUP1 SLOAD PUSH2 0xAD1 SWAP1 PUSH2 0x1BD6 JUMP JUMPDEST DUP1 ISZERO PUSH2 0xB1E JUMPI DUP1 PUSH1 0x1F LT PUSH2 0xAF3 JUMPI PUSH2 0x100 DUP1 DUP4 SLOAD DIV MUL DUP4 MSTORE SWAP2 PUSH1 0x20 ADD SWAP2 PUSH2 0xB1E JUMP JUMPDEST DUP3 ADD SWAP2 SWAP1 PUSH1 0x0 MSTORE PUSH1 0x20 PUSH1 0x0 KECCAK256 SWAP1 JUMPDEST DUP2 SLOAD DUP2 MSTORE SWAP1 PUSH1 0x1 ADD SWAP1 PUSH1 0x20 ADD DUP1 DUP4 GT PUSH2 0xB01 JUMPI DUP3 SWAP1 SUB PUSH1 0x1F AND DUP3 ADD SWAP2 JUMPDEST POP POP POP PUSH1 0x3 DUP5 ADD SLOAD PUSH1 0x4 DUP6 ADD SLOAD PUSH1 0x5 DUP7 ADD SLOAD PUSH1 0x6 DUP8 ADD SLOAD PUSH1 0x7 DUP9 ADD SLOAD PUSH1 0x8 SWAP1 SWAP9 ADD SLOAD SWAP7 SWAP8 SWAP4 SWAP7 SWAP3 SWAP6 POP SWAP1 SWAP4 POP PUSH1 0xFF SWAP1 DUP2 AND SWAP3 SWAP2 AND DUP10 JUMP JUMPDEST PUSH1 0x0 DUP4 DUP2 MSTORE PUSH1 0xA PUSH1 0x20 SWAP1 DUP2 MSTORE PUSH1 0x40 DUP1 DUP4 KECCAK256 CALLER DUP5 MSTORE DUP3 MSTORE DUP1 DUP4 KECCAK256 DUP2 MLOAD PUSH2 0x120 DUP2 ADD DUP4 MSTORE DUP2 SLOAD DUP2 MSTORE PUSH1 0x1 DUP3 ADD SLOAD PUSH1 0x1 PUSH1 0x1 PUSH1 0xA0 SHL SUB AND SWAP4 DUP2 ADD SWAP4 SWAP1 SWAP4 MSTORE PUSH1 0x2 DUP2 ADD DUP1 SLOAD SWAP2 SWAP3 DUP5 ADD SWAP2 PUSH2 0xBA4 SWAP1 PUSH2 0x1BD6 JUMP JUMPDEST DUP1 PUSH1 0x1F ADD PUSH1 0x20 DUP1 SWAP2 DIV MUL PUSH1 0x20 ADD PUSH1 0x40 MLOAD SWAP1 DUP2 ADD PUSH1 0x40 MSTORE DUP1 SWAP3 SWAP2 SWAP1 DUP2 DUP2 MSTORE PUSH1 0x20 ADD DUP3 DUP1 SLOAD PUSH2 0xBD0 SWAP1 PUSH2 0x1BD6 JUMP JUMPDEST DUP1 ISZERO PUSH2 0xC1D JUMPI DUP1 PUSH1 0x1F LT PUSH2 0xBF2 JUMPI PUSH2 0x100 DUP1 DUP4 SLOAD DIV MUL DUP4 MSTORE SWAP2 PUSH1 0x20 ADD SWAP2 PUSH2 0xC1D JUMP JUMPDEST DUP3 ADD SWAP2 SWAP1 PUSH1 0x0 MSTORE PUSH1 0x20 PUSH1 0x0 KECCAK256 SWAP1 JUMPDEST DUP2 SLOAD DUP2 MSTORE SWAP1 PUSH1 0x1 ADD SWAP1 PUSH1 0x20 ADD DUP1 DUP4 GT PUSH2 0xC00 JUMPI DUP3 SWAP1 SUB PUSH1 0x1F AND DUP3 ADD SWAP2 JUMPDEST POP POP POP SWAP2 DUP4 MSTORE POP POP PUSH1 0x3 DUP3 ADD SLOAD PUSH1 0x20 DUP3 ADD MSTORE PUSH1 0x4 DUP3 ADD SLOAD PUSH1 0x40 DUP3 ADD MSTORE PUSH1 0x5 DUP1 DUP4 ADD SLOAD PUSH1 0x60 DUP4 ADD MSTORE PUSH1 0x6 DUP4 ADD SLOAD PUSH1 0x80 SWAP1 SWAP3 ADD SWAP2 PUSH1 0xFF AND SWAP1 DUP2 GT ISZERO PUSH2 0xC70 JUMPI PUSH4 0x4E487B71 PUSH1 0xE0 SHL PUSH1 0x0 MSTORE PUSH1 0x21 PUSH1 0x4 MSTORE PUSH1 0x24 PUSH1 0x0 REVERT JUMPDEST PUSH1 0x5 DUP2 GT ISZERO PUSH2 0xC8F JUMPI PUSH4 0x4E487B71 PUSH1 0xE0 SHL PUSH1 0x0 MSTORE PUSH1 0x21 PUSH1 0x4 MSTORE PUSH1 0x24 PUSH1 0x0 REVERT JUMPDEST DUP2 MSTORE PUSH1 0x7 DUP3 ADD SLOAD PUSH1 0x20 DUP1 DUP4 ADD SWAP2 SWAP1 SWAP2 MSTORE PUSH1 0x8 SWAP1 SWAP3 ADD SLOAD PUSH1 0xFF AND ISZERO ISZERO PUSH1 0x40 SWAP1 SWAP2 ADD MSTORE DUP2 ADD MLOAD SWAP1 SWAP2 POP PUSH1 0x1 PUSH1 0x1 PUSH1 0xA0 SHL SUB AND PUSH2 0xD0B JUMPI PUSH1 0x40 MLOAD PUSH3 0x461BCD PUSH1 0xE5 SHL DUP2 MSTORE PUSH1 0x20 PUSH1 0x4 DUP3 ADD DUP2 SWAP1 MSTORE PUSH1 0x24 DUP3 ADD MSTORE PUSH32 0x506F6C69637920486F6C646572204164647265737320697320696E76616C6964 PUSH1 0x44 DUP3 ADD MSTORE PUSH1 0x64 ADD PUSH2 0x3C6 JUMP JUMPDEST PUSH2 0x100 DUP2 ADD MLOAD ISZERO PUSH2 0xD50 JUMPI PUSH1 0x40 MLOAD PUSH3 0x461BCD PUSH1 0xE5 SHL DUP2 MSTORE PUSH1 0x20 PUSH1 0x4 DUP3 ADD MSTORE PUSH1 0xF PUSH1 0x24 DUP3 ADD MSTORE PUSH15 0x105B1C9958591E4818DB185A5B5959 PUSH1 0x8A SHL PUSH1 0x44 DUP3 ADD MSTORE PUSH1 0x64 ADD PUSH2 0x3C6 JUMP JUMPDEST PUSH1 0x0 PUSH2 0xD6C PUSH2 0xD5E DUP5 PUSH2 0xF1B JUMP JUMPDEST ADDRESS PUSH4 0x75E46D3 PUSH1 0xE1 SHL PUSH2 0xF38 JUMP JUMPDEST SWAP1 POP PUSH2 0xDA4 PUSH1 0x40 MLOAD DUP1 PUSH1 0x40 ADD PUSH1 0x40 MSTORE DUP1 PUSH1 0x5 DUP2 MSTORE PUSH1 0x20 ADD PUSH5 0x1D5B9D1A5B PUSH1 0xDA SHL DUP2 MSTORE POP DUP4 PUSH1 0x80 ADD MLOAD DUP4 PUSH2 0xF5D SWAP1 SWAP3 SWAP2 SWAP1 PUSH4 0xFFFFFFFF AND JUMP JUMPDEST PUSH1 0x0 PUSH2 0xDB8 DUP6 DUP4 PUSH7 0x38D7EA4C68000 PUSH2 0xF80 JUMP JUMPDEST PUSH1 0x0 DUP2 DUP2 MSTORE PUSH1 0xC PUSH1 0x20 SWAP1 DUP2 MSTORE PUSH1 0x40 SWAP2 DUP3 SWAP1 KECCAK256 DUP7 MLOAD DUP2 SSTORE DUP7 DUP3 ADD MLOAD PUSH1 0x1 DUP3 ADD DUP1 SLOAD PUSH1 0x1 PUSH1 0x1 PUSH1 0xA0 SHL SUB NOT AND PUSH1 0x1 PUSH1 0x1 PUSH1 0xA0 SHL SUB SWAP1 SWAP3 AND SWAP2 SWAP1 SWAP2 OR SWAP1 SSTORE SWAP2 DUP7 ADD MLOAD DUP1 MLOAD SWAP4 SWAP5 POP DUP7 SWAP4 PUSH2 0xE0E SWAP3 PUSH1 0x2 DUP6 ADD SWAP3 ADD SWAP1 PUSH2 0x15BC JUMP JUMPDEST POP PUSH1 0x60 DUP3 ADD MLOAD DUP2 PUSH1 0x3 ADD SSTORE PUSH1 0x80 DUP3 ADD MLOAD DUP2 PUSH1 0x4 ADD SSTORE PUSH1 0xA0 DUP3 ADD MLOAD DUP2 PUSH1 0x5 ADD SSTORE PUSH1 0xC0 DUP3 ADD MLOAD DUP2 PUSH1 0x6 ADD PUSH1 0x0 PUSH2 0x100 EXP DUP2 SLOAD DUP2 PUSH1 0xFF MUL NOT AND SWAP1 DUP4 PUSH1 0x5 DUP2 GT ISZERO PUSH2 0xE65 JUMPI PUSH4 0x4E487B71 PUSH1 0xE0 SHL PUSH1 0x0 MSTORE PUSH1 0x21 PUSH1 0x4 MSTORE PUSH1 0x24 PUSH1 0x0 REVERT JUMPDEST MUL OR SWAP1 SSTORE POP PUSH1 0xE0 DUP3 ADD MLOAD PUSH1 0x7 DUP3 ADD SSTORE PUSH2 0x100 SWAP1 SWAP2 ADD MLOAD PUSH1 0x8 SWAP1 SWAP2 ADD DUP1 SLOAD PUSH1 0xFF NOT AND SWAP2 ISZERO ISZERO SWAP2 SWAP1 SWAP2 OR SWAP1 SSTORE PUSH1 0x0 SWAP6 DUP7 MSTORE PUSH1 0xD PUSH1 0x20 SWAP1 DUP2 MSTORE PUSH1 0x40 DUP1 DUP9 KECCAK256 CALLER DUP10 MSTORE SWAP1 SWAP2 MSTORE SWAP1 SWAP6 KECCAK256 SWAP5 SWAP1 SWAP5 SSTORE POP POP POP POP JUMP JUMPDEST PUSH1 0xE PUSH1 0x20 SWAP1 DUP2 MSTORE PUSH1 0x0 SWAP3 DUP4 MSTORE PUSH1 0x40 DUP1 DUP5 KECCAK256 SWAP1 SWAP2 MSTORE SWAP1 DUP3 MSTORE SWAP1 KECCAK256 DUP1 SLOAD PUSH1 0x1 DUP3 ADD DUP1 SLOAD SWAP2 SWAP3 SWAP2 PUSH2 0x938 SWAP1 PUSH2 0x1BD6 JUMP JUMPDEST PUSH1 0xC PUSH1 0x20 MSTORE PUSH1 0x0 SWAP1 DUP2 MSTORE PUSH1 0x40 SWAP1 KECCAK256 DUP1 SLOAD PUSH1 0x1 DUP3 ADD SLOAD PUSH1 0x2 DUP4 ADD DUP1 SLOAD SWAP3 SWAP4 PUSH1 0x1 PUSH1 0x1 PUSH1 0xA0 SHL SUB SWAP1 SWAP3 AND SWAP3 PUSH2 0xAA5 SWAP1 PUSH2 0x1BD6 JUMP JUMPDEST DUP1 SLOAD PUSH1 0x1 ADD SWAP1 SSTORE JUMP JUMPDEST DUP1 MLOAD PUSH1 0x0 SWAP1 DUP3 SWAP1 PUSH2 0xF2F JUMPI POP PUSH1 0x0 SWAP3 SWAP2 POP POP JUMP JUMPDEST POP POP PUSH1 0x20 ADD MLOAD SWAP1 JUMP JUMPDEST PUSH2 0xF40 PUSH2 0x1640 JUMP JUMPDEST PUSH2 0xF48 PUSH2 0x1640 JUMP JUMPDEST PUSH2 0xF54 DUP2 DUP7 DUP7 DUP7 PUSH2 0xF9F JUMP JUMPDEST SWAP6 SWAP5 POP POP POP POP POP JUMP JUMPDEST PUSH1 0x80 DUP4 ADD MLOAD PUSH2 0xF6C SWAP1 DUP4 PUSH2 0xFDC JUMP JUMPDEST PUSH1 0x80 DUP4 ADD MLOAD PUSH2 0xF7B SWAP1 DUP3 PUSH2 0xFF3 JUMP JUMPDEST POP POP POP JUMP JUMPDEST PUSH1 0x0 PUSH2 0xF97 DUP5 DUP5 DUP5 PUSH1 0x1 PUSH4 0x20214CA3 PUSH1 0xE1 SHL PUSH2 0x1003 JUMP JUMPDEST SWAP5 SWAP4 POP POP POP POP JUMP JUMPDEST PUSH2 0xFA7 PUSH2 0x1640 JUMP JUMPDEST PUSH2 0xFB7 DUP6 PUSH1 0x80 ADD MLOAD PUSH2 0x100 PUSH2 0x120F JUMP JUMPDEST POP POP SWAP2 DUP4 MSTORE PUSH1 0x1 PUSH1 0x1 PUSH1 0xA0 SHL SUB AND PUSH1 0x20 DUP4 ADD MSTORE PUSH1 0x1 PUSH1 0x1 PUSH1 0xE0 SHL SUB NOT AND PUSH1 0x40 DUP3 ADD MSTORE SWAP1 JUMP JUMPDEST PUSH2 0xFE9 DUP3 PUSH1 0x3 DUP4 MLOAD PUSH2 0x127A JUMP JUMPDEST PUSH2 0xF7B DUP3 DUP3 PUSH2 0x134E JUMP JUMPDEST PUSH2 0xFFF DUP3 PUSH1 0x0 DUP4 PUSH2 0x127A JUMP JUMPDEST POP POP JUMP JUMPDEST PUSH1 0x4 SLOAD PUSH1 0x40 MLOAD PUSH12 0xFFFFFFFFFFFFFFFFFFFFFFFF NOT ADDRESS PUSH1 0x60 SHL AND PUSH1 0x20 DUP3 ADD MSTORE PUSH1 0x34 DUP2 ADD SWAP2 SWAP1 SWAP2 MSTORE PUSH1 0x0 SWAP1 PUSH1 0x54 ADD PUSH1 0x40 DUP1 MLOAD DUP1 DUP4 SUB PUSH1 0x1F NOT ADD DUP2 MSTORE SWAP2 DUP2 MSTORE DUP2 MLOAD PUSH1 0x20 SWAP3 DUP4 ADD KECCAK256 PUSH1 0x4 SLOAD PUSH1 0x60 DUP10 ADD MSTORE PUSH1 0x0 DUP2 DUP2 MSTORE PUSH1 0x5 SWAP1 SWAP4 MSTORE DUP2 DUP4 KECCAK256 DUP1 SLOAD PUSH1 0x1 PUSH1 0x1 PUSH1 0xA0 SHL SUB NOT AND PUSH1 0x1 PUSH1 0x1 PUSH1 0xA0 SHL SUB DUP12 AND OR SWAP1 SSTORE SWAP1 MLOAD SWAP1 SWAP3 POP DUP3 SWAP2 PUSH32 0xA6745906207AFB96A5801B8E5711FD7B74C5780CE893A973806E179D675BBE24 SWAP2 LOG2 PUSH1 0x0 DUP3 PUSH1 0x0 DUP1 DUP9 PUSH1 0x0 ADD MLOAD DUP10 PUSH1 0x20 ADD MLOAD DUP11 PUSH1 0x40 ADD MLOAD DUP12 PUSH1 0x60 ADD MLOAD DUP11 DUP14 PUSH1 0x80 ADD MLOAD PUSH1 0x0 ADD MLOAD PUSH1 0x40 MLOAD PUSH1 0x24 ADD PUSH2 0x10DA SWAP9 SWAP8 SWAP7 SWAP6 SWAP5 SWAP4 SWAP3 SWAP2 SWAP1 PUSH2 0x1936 JUMP JUMPDEST PUSH1 0x40 DUP1 MLOAD PUSH1 0x1F NOT DUP2 DUP5 SUB ADD DUP2 MSTORE SWAP2 DUP2 MSTORE PUSH1 0x20 DUP3 ADD DUP1 MLOAD PUSH1 0x1 PUSH1 0x1 PUSH1 0xE0 SHL SUB AND PUSH1 0x1 PUSH1 0x1 PUSH1 0xE0 SHL SUB NOT SWAP1 SWAP5 AND SWAP4 SWAP1 SWAP4 OR SWAP1 SWAP3 MSTORE PUSH1 0x2 SLOAD SWAP2 MLOAD PUSH4 0x2000575 PUSH1 0xE5 SHL DUP2 MSTORE SWAP1 SWAP3 POP PUSH1 0x1 PUSH1 0x1 PUSH1 0xA0 SHL SUB SWAP1 SWAP2 AND SWAP1 PUSH4 0x4000AEA0 SWAP1 PUSH2 0x1142 SWAP1 DUP11 SWAP1 DUP10 SWAP1 DUP7 SWAP1 PUSH1 0x4 ADD PUSH2 0x199E JUMP JUMPDEST PUSH1 0x20 PUSH1 0x40 MLOAD DUP1 DUP4 SUB DUP2 PUSH1 0x0 DUP8 DUP1 EXTCODESIZE ISZERO DUP1 ISZERO PUSH2 0x115C JUMPI PUSH1 0x0 DUP1 REVERT JUMPDEST POP GAS CALL ISZERO DUP1 ISZERO PUSH2 0x1170 JUMPI RETURNDATASIZE PUSH1 0x0 DUP1 RETURNDATACOPY RETURNDATASIZE PUSH1 0x0 REVERT JUMPDEST POP POP POP POP PUSH1 0x40 MLOAD RETURNDATASIZE PUSH1 0x1F NOT PUSH1 0x1F DUP3 ADD AND DUP3 ADD DUP1 PUSH1 0x40 MSTORE POP DUP2 ADD SWAP1 PUSH2 0x1194 SWAP2 SWAP1 PUSH2 0x180B JUMP JUMPDEST PUSH2 0x11EC JUMPI PUSH1 0x40 MLOAD PUSH3 0x461BCD PUSH1 0xE5 SHL DUP2 MSTORE PUSH1 0x20 PUSH1 0x4 DUP3 ADD MSTORE PUSH1 0x23 PUSH1 0x24 DUP3 ADD MSTORE PUSH32 0x756E61626C6520746F207472616E73666572416E6443616C6C20746F206F7261 PUSH1 0x44 DUP3 ADD MSTORE PUSH3 0x636C65 PUSH1 0xE8 SHL PUSH1 0x64 DUP3 ADD MSTORE PUSH1 0x84 ADD PUSH2 0x3C6 JUMP JUMPDEST PUSH1 0x1 PUSH1 0x4 PUSH1 0x0 DUP3 DUP3 SLOAD PUSH2 0x11FF SWAP2 SWAP1 PUSH2 0x1A9D JUMP JUMPDEST SWAP1 SWAP2 SSTORE POP SWAP2 SWAP8 SWAP7 POP POP POP POP POP POP POP JUMP JUMPDEST PUSH1 0x40 DUP1 MLOAD DUP1 DUP3 ADD SWAP1 SWAP2 MSTORE PUSH1 0x60 DUP2 MSTORE PUSH1 0x0 PUSH1 0x20 DUP3 ADD MSTORE PUSH2 0x122F PUSH1 0x20 DUP4 PUSH2 0x1C0B JUMP JUMPDEST ISZERO PUSH2 0x1257 JUMPI PUSH2 0x123F PUSH1 0x20 DUP4 PUSH2 0x1C0B JUMP JUMPDEST PUSH2 0x124A SWAP1 PUSH1 0x20 PUSH2 0x1BBF JUMP JUMPDEST PUSH2 0x1254 SWAP1 DUP4 PUSH2 0x1A9D JUMP JUMPDEST SWAP2 POP JUMPDEST POP PUSH1 0x20 DUP1 DUP4 ADD DUP3 SWAP1 MSTORE PUSH1 0x40 DUP1 MLOAD DUP1 DUP6 MSTORE PUSH1 0x0 DUP2 MSTORE DUP4 ADD SWAP1 SWAP2 ADD SWAP1 MSTORE DUP2 JUMPDEST SWAP3 SWAP2 POP POP JUMP JUMPDEST PUSH1 0x17 DUP2 GT PUSH2 0x129B JUMPI PUSH2 0x1295 DUP4 PUSH1 0xE0 PUSH1 0x5 DUP6 SWAP1 SHL AND DUP4 OR PUSH2 0x137C JUMP JUMPDEST POP POP POP POP JUMP JUMPDEST PUSH1 0xFF DUP2 GT PUSH2 0x12C5 JUMPI PUSH2 0x12B8 DUP4 PUSH1 0x18 PUSH2 0x1FE0 PUSH1 0x5 DUP7 SWAP1 SHL AND OR PUSH2 0x137C JUMP JUMPDEST POP PUSH2 0x1295 DUP4 DUP3 PUSH1 0x1 PUSH2 0x13A1 JUMP JUMPDEST PUSH2 0xFFFF DUP2 GT PUSH2 0x12F0 JUMPI PUSH2 0x12E3 DUP4 PUSH1 0x19 PUSH2 0x1FE0 PUSH1 0x5 DUP7 SWAP1 SHL AND OR PUSH2 0x137C JUMP JUMPDEST POP PUSH2 0x1295 DUP4 DUP3 PUSH1 0x2 PUSH2 0x13A1 JUMP JUMPDEST PUSH4 0xFFFFFFFF DUP2 GT PUSH2 0x131D JUMPI PUSH2 0x1310 DUP4 PUSH1 0x1A PUSH2 0x1FE0 PUSH1 0x5 DUP7 SWAP1 SHL AND OR PUSH2 0x137C JUMP JUMPDEST POP PUSH2 0x1295 DUP4 DUP3 PUSH1 0x4 PUSH2 0x13A1 JUMP JUMPDEST PUSH8 0xFFFFFFFFFFFFFFFF DUP2 GT PUSH2 0xF7B JUMPI PUSH2 0x1341 DUP4 PUSH1 0x1B PUSH2 0x1FE0 PUSH1 0x5 DUP7 SWAP1 SHL AND OR PUSH2 0x137C JUMP JUMPDEST POP PUSH2 0x1295 DUP4 DUP3 PUSH1 0x8 PUSH2 0x13A1 JUMP JUMPDEST PUSH1 0x40 DUP1 MLOAD DUP1 DUP3 ADD SWAP1 SWAP2 MSTORE PUSH1 0x60 DUP2 MSTORE PUSH1 0x0 PUSH1 0x20 DUP3 ADD MSTORE PUSH2 0x1375 DUP4 DUP5 PUSH1 0x0 ADD MLOAD MLOAD DUP5 DUP6 MLOAD PUSH2 0x13C7 JUMP JUMPDEST SWAP4 SWAP3 POP POP POP JUMP JUMPDEST PUSH1 0x40 DUP1 MLOAD DUP1 DUP3 ADD SWAP1 SWAP2 MSTORE PUSH1 0x60 DUP2 MSTORE PUSH1 0x0 PUSH1 0x20 DUP3 ADD MSTORE PUSH2 0x1375 DUP4 DUP5 PUSH1 0x0 ADD MLOAD MLOAD DUP5 PUSH2 0x14B1 JUMP JUMPDEST PUSH1 0x40 DUP1 MLOAD DUP1 DUP3 ADD SWAP1 SWAP2 MSTORE PUSH1 0x60 DUP2 MSTORE PUSH1 0x0 PUSH1 0x20 DUP3 ADD MSTORE PUSH2 0xF97 DUP5 DUP6 PUSH1 0x0 ADD MLOAD MLOAD DUP6 DUP6 PUSH2 0x150D JUMP JUMPDEST PUSH1 0x40 DUP1 MLOAD DUP1 DUP3 ADD SWAP1 SWAP2 MSTORE PUSH1 0x60 DUP2 MSTORE PUSH1 0x0 PUSH1 0x20 DUP3 ADD MSTORE DUP3 MLOAD DUP3 GT ISZERO PUSH2 0x13EA JUMPI PUSH1 0x0 DUP1 REVERT JUMPDEST PUSH1 0x20 DUP6 ADD MLOAD PUSH2 0x13F9 DUP4 DUP7 PUSH2 0x1A9D JUMP JUMPDEST GT ISZERO PUSH2 0x142C JUMPI PUSH2 0x142C DUP6 PUSH2 0x141C DUP8 PUSH1 0x20 ADD MLOAD DUP8 DUP7 PUSH2 0x1417 SWAP2 SWAP1 PUSH2 0x1A9D JUMP JUMPDEST PUSH2 0x158E JUMP JUMPDEST PUSH2 0x1427 SWAP1 PUSH1 0x2 PUSH2 0x1BA0 JUMP JUMPDEST PUSH2 0x15A5 JUMP JUMPDEST PUSH1 0x0 DUP1 DUP7 MLOAD DUP1 MLOAD DUP8 PUSH1 0x20 DUP4 ADD ADD SWAP4 POP DUP1 DUP9 DUP8 ADD GT ISZERO PUSH2 0x144B JUMPI DUP8 DUP7 ADD DUP3 MSTORE JUMPDEST POP POP POP PUSH1 0x20 DUP5 ADD JUMPDEST PUSH1 0x20 DUP5 LT PUSH2 0x148B JUMPI DUP1 MLOAD DUP3 MSTORE PUSH2 0x146A PUSH1 0x20 DUP4 PUSH2 0x1A9D JUMP JUMPDEST SWAP2 POP PUSH2 0x1477 PUSH1 0x20 DUP3 PUSH2 0x1A9D JUMP JUMPDEST SWAP1 POP PUSH2 0x1484 PUSH1 0x20 DUP6 PUSH2 0x1BBF JUMP JUMPDEST SWAP4 POP PUSH2 0x1453 JUMP JUMPDEST MLOAD DUP2 MLOAD PUSH1 0x0 NOT PUSH1 0x20 DUP7 SWAP1 SUB PUSH2 0x100 EXP ADD SWAP1 DUP2 AND SWAP1 NOT SWAP2 SWAP1 SWAP2 AND OR SWAP1 MSTORE POP DUP4 SWAP5 SWAP4 POP POP POP POP JUMP JUMPDEST PUSH1 0x40 DUP1 MLOAD DUP1 DUP3 ADD SWAP1 SWAP2 MSTORE PUSH1 0x60 DUP2 MSTORE PUSH1 0x0 PUSH1 0x20 DUP3 ADD MSTORE DUP4 PUSH1 0x20 ADD MLOAD DUP4 LT PUSH2 0x14E6 JUMPI PUSH2 0x14E6 DUP5 DUP6 PUSH1 0x20 ADD MLOAD PUSH1 0x2 PUSH2 0x1427 SWAP2 SWAP1 PUSH2 0x1BA0 JUMP JUMPDEST DUP4 MLOAD DUP1 MLOAD PUSH1 0x20 DUP6 DUP4 ADD ADD DUP5 DUP2 MSTORE8 POP DUP1 DUP6 EQ ISZERO PUSH2 0x1503 JUMPI PUSH1 0x1 DUP2 ADD DUP3 MSTORE JUMPDEST POP SWAP4 SWAP5 SWAP4 POP POP POP POP JUMP JUMPDEST PUSH1 0x40 DUP1 MLOAD DUP1 DUP3 ADD SWAP1 SWAP2 MSTORE PUSH1 0x60 DUP2 MSTORE PUSH1 0x0 PUSH1 0x20 DUP3 ADD MSTORE PUSH1 0x20 DUP6 ADD MLOAD PUSH2 0x1531 DUP6 DUP5 PUSH2 0x1A9D JUMP JUMPDEST GT ISZERO PUSH2 0x1545 JUMPI PUSH2 0x1545 DUP6 PUSH2 0x141C DUP7 DUP6 PUSH2 0x1A9D JUMP JUMPDEST PUSH1 0x0 PUSH1 0x1 PUSH2 0x1555 DUP5 PUSH2 0x100 PUSH2 0x1AF8 JUMP JUMPDEST PUSH2 0x155F SWAP2 SWAP1 PUSH2 0x1BBF JUMP JUMPDEST SWAP1 POP DUP6 MLOAD DUP4 DUP7 DUP3 ADD ADD DUP6 DUP4 NOT DUP3 MLOAD AND OR DUP2 MSTORE POP DUP1 MLOAD DUP5 DUP8 ADD GT ISZERO PUSH2 0x1583 JUMPI DUP4 DUP7 ADD DUP2 MSTORE JUMPDEST POP SWAP5 SWAP6 SWAP5 POP POP POP POP POP JUMP JUMPDEST PUSH1 0x0 DUP2 DUP4 GT ISZERO PUSH2 0x159F JUMPI POP DUP2 PUSH2 0x1274 JUMP JUMPDEST POP SWAP2 SWAP1 POP JUMP JUMPDEST DUP2 MLOAD PUSH2 0x15B1 DUP4 DUP4 PUSH2 0x120F JUMP JUMPDEST POP PUSH2 0x1295 DUP4 DUP3 PUSH2 0x134E JUMP JUMPDEST DUP3 DUP1 SLOAD PUSH2 0x15C8 SWAP1 PUSH2 0x1BD6 JUMP JUMPDEST SWAP1 PUSH1 0x0 MSTORE PUSH1 0x20 PUSH1 0x0 KECCAK256 SWAP1 PUSH1 0x1F ADD PUSH1 0x20 SWAP1 DIV DUP2 ADD SWAP3 DUP3 PUSH2 0x15EA JUMPI PUSH1 0x0 DUP6 SSTORE PUSH2 0x1630 JUMP JUMPDEST DUP3 PUSH1 0x1F LT PUSH2 0x1603 JUMPI DUP1 MLOAD PUSH1 0xFF NOT AND DUP4 DUP1 ADD OR DUP6 SSTORE PUSH2 0x1630 JUMP JUMPDEST DUP3 DUP1 ADD PUSH1 0x1 ADD DUP6 SSTORE DUP3 ISZERO PUSH2 0x1630 JUMPI SWAP2 DUP3 ADD JUMPDEST DUP3 DUP2 GT ISZERO PUSH2 0x1630 JUMPI DUP3 MLOAD DUP3 SSTORE SWAP2 PUSH1 0x20 ADD SWAP2 SWAP1 PUSH1 0x1 ADD SWAP1 PUSH2 0x1615 JUMP JUMPDEST POP PUSH2 0x163C SWAP3 SWAP2 POP PUSH2 0x167B JUMP JUMPDEST POP SWAP1 JUMP JUMPDEST PUSH1 0x40 DUP1 MLOAD PUSH1 0xA0 DUP2 ADD DUP3 MSTORE PUSH1 0x0 DUP1 DUP3 MSTORE PUSH1 0x20 DUP1 DUP4 ADD DUP3 SWAP1 MSTORE DUP3 DUP5 ADD DUP3 SWAP1 MSTORE PUSH1 0x60 DUP1 DUP5 ADD DUP4 SWAP1 MSTORE DUP5 MLOAD DUP1 DUP7 ADD SWAP1 SWAP6 MSTORE DUP5 MSTORE DUP4 ADD MSTORE SWAP1 PUSH1 0x80 DUP3 ADD MSTORE SWAP1 JUMP JUMPDEST JUMPDEST DUP1 DUP3 GT ISZERO PUSH2 0x163C JUMPI PUSH1 0x0 DUP2 SSTORE PUSH1 0x1 ADD PUSH2 0x167C JUMP JUMPDEST DUP1 CALLDATALOAD PUSH1 0x1 PUSH1 0x1 PUSH1 0xA0 SHL SUB DUP2 AND DUP2 EQ PUSH2 0x16A7 JUMPI PUSH1 0x0 DUP1 REVERT JUMPDEST SWAP2 SWAP1 POP JUMP JUMPDEST PUSH1 0x0 DUP3 PUSH1 0x1F DUP4 ADD SLT PUSH2 0x16BC JUMPI DUP1 DUP2 REVERT JUMPDEST DUP2 CALLDATALOAD PUSH8 0xFFFFFFFFFFFFFFFF DUP1 DUP3 GT ISZERO PUSH2 0x16D7 JUMPI PUSH2 0x16D7 PUSH2 0x1C41 JUMP JUMPDEST PUSH1 0x40 MLOAD PUSH1 0x1F DUP4 ADD PUSH1 0x1F NOT SWAP1 DUP2 AND PUSH1 0x3F ADD AND DUP2 ADD SWAP1 DUP3 DUP3 GT DUP2 DUP4 LT OR ISZERO PUSH2 0x16FF JUMPI PUSH2 0x16FF PUSH2 0x1C41 JUMP JUMPDEST DUP2 PUSH1 0x40 MSTORE DUP4 DUP2 MSTORE DUP7 PUSH1 0x20 DUP6 DUP9 ADD ADD GT ISZERO PUSH2 0x1717 JUMPI DUP5 DUP6 REVERT JUMPDEST DUP4 PUSH1 0x20 DUP8 ADD PUSH1 0x20 DUP4 ADD CALLDATACOPY SWAP3 DUP4 ADD PUSH1 0x20 ADD SWAP4 SWAP1 SWAP4 MSTORE POP SWAP4 SWAP3 POP POP POP JUMP JUMPDEST PUSH1 0x0 DUP1 PUSH1 0x0 PUSH1 0x60 DUP5 DUP7 SUB SLT ISZERO PUSH2 0x1747 JUMPI DUP3 DUP4 REVERT JUMPDEST PUSH2 0x1750 DUP5 PUSH2 0x1690 JUMP JUMPDEST SWAP3 POP PUSH1 0x20 DUP5 ADD CALLDATALOAD PUSH8 0xFFFFFFFFFFFFFFFF DUP1 DUP3 GT ISZERO PUSH2 0x176C JUMPI DUP4 DUP5 REVERT JUMPDEST PUSH2 0x1778 DUP8 DUP4 DUP9 ADD PUSH2 0x16AC JUMP JUMPDEST SWAP4 POP PUSH1 0x40 DUP7 ADD CALLDATALOAD SWAP2 POP DUP1 DUP3 GT ISZERO PUSH2 0x178D JUMPI DUP3 DUP4 REVERT JUMPDEST POP PUSH2 0x179A DUP7 DUP3 DUP8 ADD PUSH2 0x16AC JUMP JUMPDEST SWAP2 POP POP SWAP3 POP SWAP3 POP SWAP3 JUMP JUMPDEST PUSH1 0x0 DUP1 PUSH1 0x0 DUP1 PUSH1 0x0 PUSH1 0xA0 DUP7 DUP9 SUB SLT ISZERO PUSH2 0x17BB JUMPI DUP1 DUP2 REVERT JUMPDEST PUSH2 0x17C4 DUP7 PUSH2 0x1690 JUMP JUMPDEST SWAP5 POP PUSH1 0x20 DUP7 ADD CALLDATALOAD PUSH8 0xFFFFFFFFFFFFFFFF DUP2 GT ISZERO PUSH2 0x17DF JUMPI DUP2 DUP3 REVERT JUMPDEST PUSH2 0x17EB DUP9 DUP3 DUP10 ADD PUSH2 0x16AC JUMP JUMPDEST SWAP6 SWAP9 SWAP6 SWAP8 POP POP POP POP PUSH1 0x40 DUP5 ADD CALLDATALOAD SWAP4 PUSH1 0x60 DUP2 ADD CALLDATALOAD SWAP4 PUSH1 0x80 SWAP1 SWAP2 ADD CALLDATALOAD SWAP3 POP SWAP1 POP JUMP JUMPDEST PUSH1 0x0 PUSH1 0x20 DUP3 DUP5 SUB SLT ISZERO PUSH2 0x181C JUMPI DUP1 DUP2 REVERT JUMPDEST DUP2 MLOAD DUP1 ISZERO ISZERO DUP2 EQ PUSH2 0x1375 JUMPI DUP2 DUP3 REVERT JUMPDEST PUSH1 0x0 PUSH1 0x20 DUP3 DUP5 SUB SLT ISZERO PUSH2 0x183C JUMPI DUP1 DUP2 REVERT JUMPDEST POP CALLDATALOAD SWAP2 SWAP1 POP JUMP JUMPDEST PUSH1 0x0 DUP1 PUSH1 0x40 DUP4 DUP6 SUB SLT ISZERO PUSH2 0x1855 JUMPI DUP2 DUP3 REVERT JUMPDEST DUP3 CALLDATALOAD SWAP2 POP PUSH1 0x20 DUP4 ADD CALLDATALOAD PUSH1 0x6 DUP2 LT PUSH2 0x186A JUMPI DUP2 DUP3 REVERT JUMPDEST DUP1 SWAP2 POP POP SWAP3 POP SWAP3 SWAP1 POP JUMP JUMPDEST PUSH1 0x0 DUP1 PUSH1 0x40 DUP4 DUP6 SUB SLT ISZERO PUSH2 0x1887 JUMPI DUP2 DUP3 REVERT JUMPDEST DUP3 CALLDATALOAD SWAP2 POP PUSH2 0x1897 PUSH1 0x20 DUP5 ADD PUSH2 0x1690 JUMP JUMPDEST SWAP1 POP SWAP3 POP SWAP3 SWAP1 POP JUMP JUMPDEST PUSH1 0x0 DUP1 PUSH1 0x0 PUSH1 0x60 DUP5 DUP7 SUB SLT ISZERO PUSH2 0x18B4 JUMPI DUP3 DUP4 REVERT JUMPDEST DUP4 CALLDATALOAD SWAP3 POP PUSH2 0x18C4 PUSH1 0x20 DUP6 ADD PUSH2 0x1690 JUMP JUMPDEST SWAP2 POP PUSH1 0x40 DUP5 ADD CALLDATALOAD PUSH8 0xFFFFFFFFFFFFFFFF DUP2 GT ISZERO PUSH2 0x18DF JUMPI DUP2 DUP3 REVERT JUMPDEST PUSH2 0x179A DUP7 DUP3 DUP8 ADD PUSH2 0x16AC JUMP JUMPDEST PUSH1 0x0 DUP2 MLOAD DUP1 DUP5 MSTORE DUP2 JUMPDEST DUP2 DUP2 LT ISZERO PUSH2 0x1910 JUMPI PUSH1 0x20 DUP2 DUP6 ADD DUP2 ADD MLOAD DUP7 DUP4 ADD DUP3 ADD MSTORE ADD PUSH2 0x18F4 JUMP JUMPDEST DUP2 DUP2 GT ISZERO PUSH2 0x1921 JUMPI DUP3 PUSH1 0x20 DUP4 DUP8 ADD ADD MSTORE JUMPDEST POP PUSH1 0x1F ADD PUSH1 0x1F NOT AND SWAP3 SWAP1 SWAP3 ADD PUSH1 0x20 ADD SWAP3 SWAP2 POP POP JUMP JUMPDEST PUSH1 0x1 PUSH1 0x1 PUSH1 0xA0 SHL SUB DUP10 DUP2 AND DUP3 MSTORE PUSH1 0x20 DUP3 ADD DUP10 SWAP1 MSTORE PUSH1 0x40 DUP3 ADD DUP9 SWAP1 MSTORE DUP7 AND PUSH1 0x60 DUP3 ADD MSTORE PUSH1 0x1 PUSH1 0x1 PUSH1 0xE0 SHL SUB NOT DUP6 AND PUSH1 0x80 DUP3 ADD MSTORE PUSH1 0xA0 DUP2 ADD DUP5 SWAP1 MSTORE PUSH1 0xC0 DUP2 ADD DUP4 SWAP1 MSTORE PUSH2 0x100 PUSH1 0xE0 DUP3 ADD DUP2 SWAP1 MSTORE PUSH1 0x0 SWAP1 PUSH2 0x198F DUP4 DUP3 ADD DUP6 PUSH2 0x18EB JUMP JUMPDEST SWAP12 SWAP11 POP POP POP POP POP POP POP POP POP POP POP JUMP JUMPDEST PUSH1 0x1 DUP1 PUSH1 0xA0 SHL SUB DUP5 AND DUP2 MSTORE DUP3 PUSH1 0x20 DUP3 ADD MSTORE PUSH1 0x60 PUSH1 0x40 DUP3 ADD MSTORE PUSH1 0x0 PUSH2 0xF54 PUSH1 0x60 DUP4 ADD DUP5 PUSH2 0x18EB JUMP JUMPDEST DUP10 DUP2 MSTORE PUSH1 0x1 PUSH1 0x1 PUSH1 0xA0 SHL SUB DUP10 AND PUSH1 0x20 DUP3 ADD MSTORE PUSH2 0x120 PUSH1 0x40 DUP3 ADD DUP2 SWAP1 MSTORE PUSH1 0x0 SWAP1 PUSH2 0x19F0 DUP4 DUP3 ADD DUP12 PUSH2 0x18EB JUMP JUMPDEST SWAP2 POP POP DUP8 PUSH1 0x60 DUP4 ADD MSTORE DUP7 PUSH1 0x80 DUP4 ADD MSTORE DUP6 PUSH1 0xA0 DUP4 ADD MSTORE PUSH1 0x6 DUP6 LT PUSH2 0x1A23 JUMPI PUSH4 0x4E487B71 PUSH1 0xE0 SHL PUSH1 0x0 MSTORE PUSH1 0x21 PUSH1 0x4 MSTORE PUSH1 0x24 PUSH1 0x0 REVERT JUMPDEST DUP5 PUSH1 0xC0 DUP4 ADD MSTORE DUP4 PUSH1 0xE0 DUP4 ADD MSTORE DUP3 ISZERO ISZERO PUSH2 0x100 DUP4 ADD MSTORE SWAP11 SWAP10 POP POP POP POP POP POP POP POP POP POP JUMP JUMPDEST DUP7 DUP2 MSTORE PUSH1 0xC0 PUSH1 0x20 DUP3 ADD MSTORE PUSH1 0x0 PUSH2 0x1A5F PUSH1 0xC0 DUP4 ADD DUP9 PUSH2 0x18EB JUMP JUMPDEST DUP3 DUP2 SUB PUSH1 0x40 DUP5 ADD MSTORE PUSH2 0x1A71 DUP2 DUP9 PUSH2 0x18EB JUMP JUMPDEST PUSH1 0x1 PUSH1 0x1 PUSH1 0xA0 SHL SUB SWAP7 DUP8 AND PUSH1 0x60 DUP6 ADD MSTORE PUSH1 0x80 DUP5 ADD SWAP6 SWAP1 SWAP6 MSTORE POP POP SWAP3 AND PUSH1 0xA0 SWAP1 SWAP3 ADD SWAP2 SWAP1 SWAP2 MSTORE SWAP4 SWAP3 POP POP POP JUMP JUMPDEST PUSH1 0x0 DUP3 NOT DUP3 GT ISZERO PUSH2 0x1AB0 JUMPI PUSH2 0x1AB0 PUSH2 0x1C2B JUMP JUMPDEST POP ADD SWAP1 JUMP JUMPDEST PUSH1 0x1 DUP2 DUP2 JUMPDEST DUP1 DUP6 GT ISZERO PUSH2 0x1AF0 JUMPI DUP2 PUSH1 0x0 NOT DIV DUP3 GT ISZERO PUSH2 0x1AD6 JUMPI PUSH2 0x1AD6 PUSH2 0x1C2B JUMP JUMPDEST DUP1 DUP6 AND ISZERO PUSH2 0x1AE3 JUMPI SWAP2 DUP2 MUL SWAP2 JUMPDEST SWAP4 DUP5 SHR SWAP4 SWAP1 DUP1 MUL SWAP1 PUSH2 0x1ABA JUMP JUMPDEST POP SWAP3 POP SWAP3 SWAP1 POP JUMP JUMPDEST PUSH1 0x0 PUSH2 0x1375 DUP4 DUP4 PUSH1 0x0 DUP3 PUSH2 0x1B0E JUMPI POP PUSH1 0x1 PUSH2 0x1274 JUMP JUMPDEST DUP2 PUSH2 0x1B1B JUMPI POP PUSH1 0x0 PUSH2 0x1274 JUMP JUMPDEST DUP2 PUSH1 0x1 DUP2 EQ PUSH2 0x1B31 JUMPI PUSH1 0x2 DUP2 EQ PUSH2 0x1B3B JUMPI PUSH2 0x1B57 JUMP JUMPDEST PUSH1 0x1 SWAP2 POP POP PUSH2 0x1274 JUMP JUMPDEST PUSH1 0xFF DUP5 GT ISZERO PUSH2 0x1B4C JUMPI PUSH2 0x1B4C PUSH2 0x1C2B JUMP JUMPDEST POP POP PUSH1 0x1 DUP3 SHL PUSH2 0x1274 JUMP JUMPDEST POP PUSH1 0x20 DUP4 LT PUSH2 0x133 DUP4 LT AND PUSH1 0x4E DUP5 LT PUSH1 0xB DUP5 LT AND OR ISZERO PUSH2 0x1B7A JUMPI POP DUP2 DUP2 EXP PUSH2 0x1274 JUMP JUMPDEST PUSH2 0x1B84 DUP4 DUP4 PUSH2 0x1AB5 JUMP JUMPDEST DUP1 PUSH1 0x0 NOT DIV DUP3 GT ISZERO PUSH2 0x1B98 JUMPI PUSH2 0x1B98 PUSH2 0x1C2B JUMP JUMPDEST MUL SWAP4 SWAP3 POP POP POP JUMP JUMPDEST PUSH1 0x0 DUP2 PUSH1 0x0 NOT DIV DUP4 GT DUP3 ISZERO ISZERO AND ISZERO PUSH2 0x1BBA JUMPI PUSH2 0x1BBA PUSH2 0x1C2B JUMP JUMPDEST POP MUL SWAP1 JUMP JUMPDEST PUSH1 0x0 DUP3 DUP3 LT ISZERO PUSH2 0x1BD1 JUMPI PUSH2 0x1BD1 PUSH2 0x1C2B JUMP JUMPDEST POP SUB SWAP1 JUMP JUMPDEST PUSH1 0x1 DUP2 DUP2 SHR SWAP1 DUP3 AND DUP1 PUSH2 0x1BEA JUMPI PUSH1 0x7F DUP3 AND SWAP2 POP JUMPDEST PUSH1 0x20 DUP3 LT DUP2 EQ ISZERO PUSH2 0x159F JUMPI PUSH4 0x4E487B71 PUSH1 0xE0 SHL PUSH1 0x0 MSTORE PUSH1 0x22 PUSH1 0x4 MSTORE PUSH1 0x24 PUSH1 0x0 REVERT JUMPDEST PUSH1 0x0 DUP3 PUSH2 0x1C26 JUMPI PUSH4 0x4E487B71 PUSH1 0xE0 SHL DUP2 MSTORE PUSH1 0x12 PUSH1 0x4 MSTORE PUSH1 0x24 DUP2 REVERT JUMPDEST POP MOD SWAP1 JUMP JUMPDEST PUSH4 0x4E487B71 PUSH1 0xE0 SHL PUSH1 0x0 MSTORE PUSH1 0x11 PUSH1 0x4 MSTORE PUSH1 0x24 PUSH1 0x0 REVERT JUMPDEST PUSH4 0x4E487B71 PUSH1 0xE0 SHL PUSH1 0x0 MSTORE PUSH1 0x41 PUSH1 0x4 MSTORE PUSH1 0x24 PUSH1 0x0 REVERT INVALID LOG2 PUSH5 0x6970667358 0x22 SLT KECCAK256 STOP 0xB1 PUSH28 0x230D8527AD74CD6A5B81992CD61AFA0CA57A342A747E6829DA71B678 0x4F PUSH5 0x736F6C6343 STOP ADDMOD DIV STOP CALLER "},"methodIdentifiers":{"bookInsurance(address,string,uint256,uint256,uint256)":"1b0dce08","claimRequest(uint256,address)":"29e999f4","claims(bytes32)":"eff0f592","flights(uint256,address)":"5996e024","fulfillClaimInquiry(bytes32,uint8)":"0ebc8da6","insurances(uint256,address)":"6e8cffa2","invoices(uint256,address)":"ea0914c9","owner()":"8da5cb5b","registerFlights(address,string,string)":"04d35e30","submitMyClaim(uint256,address,string)":"c4e49cd5","tokenizeInvoices(address,string,string)":"2078a4b6"}}}}}