{
  "_format": "hh-sol-artifact-1",
  "contractName": "CustomerContract",
  "sourceName": "contracts/CustomerContract.sol",
  "abi": [
    {
      "inputs": [],
      "stateMutability": "nonpayable",
      "type": "constructor"
    },
    {
      "inputs": [],
      "name": "_counter",
      "outputs": [
        {
          "internalType": "uint256",
          "name": "",
          "type": "uint256"
        }
      ],
      "stateMutability": "view",
      "type": "function"
    },
    {
      "inputs": [
        {
          "internalType": "string",
          "name": "_bookName",
          "type": "string"
        }
      ],
      "name": "addBooks",
      "outputs": [],
      "stateMutability": "nonpayable",
      "type": "function"
    },
    {
      "inputs": [
        {
          "internalType": "string",
          "name": "_invoiceContent",
          "type": "string"
        }
      ],
      "name": "addInvoices",
      "outputs": [],
      "stateMutability": "nonpayable",
      "type": "function"
    },
    {
      "inputs": [
        {
          "internalType": "uint256",
          "name": "",
          "type": "uint256"
        }
      ],
      "name": "books",
      "outputs": [
        {
          "internalType": "uint256",
          "name": "id",
          "type": "uint256"
        },
        {
          "internalType": "string",
          "name": "bookName",
          "type": "string"
        }
      ],
      "stateMutability": "view",
      "type": "function"
    },
    {
      "inputs": [],
      "name": "getPriceInfo",
      "outputs": [
        {
          "internalType": "bytes32",
          "name": "",
          "type": "bytes32"
        }
      ],
      "stateMutability": "nonpayable",
      "type": "function"
    },
    {
      "inputs": [],
      "name": "requestId",
      "outputs": [
        {
          "internalType": "bytes32",
          "name": "",
          "type": "bytes32"
        }
      ],
      "stateMutability": "view",
      "type": "function"
    },
    {
      "inputs": [],
      "name": "show",
      "outputs": [
        {
          "internalType": "uint256",
          "name": "",
          "type": "uint256"
        }
      ],
      "stateMutability": "view",
      "type": "function"
    }
  ],
  "bytecode": "0x6080604052600080546001600160a01b031916734c50a698f8148b2560eadb50a8397b614dcff6a017905534801561003657600080fd5b50600160025561057c8061004b6000396000f3fe608060405234801561001057600080fd5b506004361061007c5760003560e01c80634706016a1161005b5780634706016a146100a557806368744046146100ba5780637cd49fde146100db578063cc80f6f3146100e457600080fd5b80626d6cae14610081578063330227bf1461009d5780633c9d54de146100a5575b600080fd5b61008a60015481565b6040519081526020015b60405180910390f35b61008a6100ec565b6100b86100b33660046103b4565b610174565b005b6100cd6100c836600461045e565b6101d2565b604051610094929190610476565b61008a60025481565b61008a610277565b60008054604051639dd4cc5d60e01b81523360048201526001600160a01b0390911690639dd4cc5d90602401602060405180830381600087803b15801561013257600080fd5b505af1158015610146573d6000803e3d6000fd5b505050506040513d601f19601f8201168201806040525081019061016a919061039c565b6001819055919050565b60408051808201825260025480825260208083018581526000928352600382529390912082518155925180519293926101b39260018501920190610303565b509050506001600260008282546101ca91906104d1565b909155505050565b600360205260009081526040902080546001820180549192916101f4906104f5565b80601f0160208091040260200160405190810160405280929190818152602001828054610220906104f5565b801561026d5780601f106102425761010080835404028352916020019161026d565b820191906000526020600020905b81548152906001019060200180831161025057829003601f168201915b5050505050905082565b60008060009054906101000a90046001600160a01b03166001600160a01b0316638e0e0abb6040518163ffffffff1660e01b815260040160206040518083038186803b1580156102c657600080fd5b505afa1580156102da573d6000803e3d6000fd5b505050506040513d601f19601f820116820180604052508101906102fe919061039c565b905090565b82805461030f906104f5565b90600052602060002090601f0160209004810192826103315760008555610377565b82601f1061034a57805160ff1916838001178555610377565b82800160010185558215610377579182015b8281111561037757825182559160200191906001019061035c565b50610383929150610387565b5090565b5b808211156103835760008155600101610388565b6000602082840312156103ad578081fd5b5051919050565b6000602082840312156103c5578081fd5b813567ffffffffffffffff808211156103dc578283fd5b818401915084601f8301126103ef578283fd5b81358181111561040157610401610530565b604051601f8201601f19908116603f0116810190838211818310171561042957610429610530565b81604052828152876020848701011115610441578586fd5b826020860160208301379182016020019490945295945050505050565b60006020828403121561046f578081fd5b5035919050565b828152600060206040818401528351806040850152825b818110156104a95785810183015185820160600152820161048d565b818111156104ba5783606083870101525b50601f01601f191692909201606001949350505050565b600082198211156104f057634e487b7160e01b81526011600452602481fd5b500190565b600181811c9082168061050957607f821691505b6020821081141561052a57634e487b7160e01b600052602260045260246000fd5b50919050565b634e487b7160e01b600052604160045260246000fdfea264697066735822122090a82d8173765133263e9f57287818964c17b936d16d913191b02f6105df380264736f6c63430008040033",
  "linkReferences": {},
  "deployedLinkReferences": {}
}