{
  "_format": "hh-sol-artifact-1",
  "contractName": "InvoicePluginContract",
  "sourceName": "contracts/InvoicePluginContract.sol",
  "abi": [
    {
      "inputs": [
        {
          "internalType": "address",
          "name": "_pli",
          "type": "address"
        }
      ],
      "stateMutability": "nonpayable",
      "type": "constructor"
    },
    {
      "anonymous": false,
      "inputs": [
        {
          "indexed": false,
          "internalType": "uint256",
          "name": "invoiceId",
          "type": "uint256"
        },
        {
          "indexed": false,
          "internalType": "string",
          "name": "eventType",
          "type": "string"
        },
        {
          "indexed": false,
          "internalType": "address",
          "name": "invoice",
          "type": "address"
        },
        {
          "indexed": false,
          "internalType": "address",
          "name": "performedBy",
          "type": "address"
        },
        {
          "indexed": false,
          "internalType": "uint256",
          "name": "performedOn",
          "type": "uint256"
        }
      ],
      "name": "InvoiceEvents",
      "type": "event"
    },
    {
      "anonymous": false,
      "inputs": [
        {
          "indexed": true,
          "internalType": "bytes32",
          "name": "id",
          "type": "bytes32"
        }
      ],
      "name": "PluginCancelled",
      "type": "event"
    },
    {
      "anonymous": false,
      "inputs": [
        {
          "indexed": true,
          "internalType": "bytes32",
          "name": "id",
          "type": "bytes32"
        }
      ],
      "name": "PluginFulfilled",
      "type": "event"
    },
    {
      "anonymous": false,
      "inputs": [
        {
          "indexed": true,
          "internalType": "bytes32",
          "name": "id",
          "type": "bytes32"
        }
      ],
      "name": "PluginRequested",
      "type": "event"
    },
    {
      "anonymous": false,
      "inputs": [
        {
          "indexed": true,
          "internalType": "bytes32",
          "name": "requestId",
          "type": "bytes32"
        },
        {
          "indexed": true,
          "internalType": "uint256",
          "name": "otp",
          "type": "uint256"
        }
      ],
      "name": "RequestPermissionFulfilled",
      "type": "event"
    },
    {
      "anonymous": false,
      "inputs": [
        {
          "indexed": true,
          "internalType": "address",
          "name": "requester",
          "type": "address"
        },
        {
          "indexed": true,
          "internalType": "bytes32",
          "name": "jobId",
          "type": "bytes32"
        },
        {
          "indexed": true,
          "internalType": "bytes32",
          "name": "requestId",
          "type": "bytes32"
        }
      ],
      "name": "requestCreated",
      "type": "event"
    },
    {
      "inputs": [
        {
          "internalType": "uint256",
          "name": "",
          "type": "uint256"
        },
        {
          "internalType": "address",
          "name": "",
          "type": "address"
        }
      ],
      "name": "invoices",
      "outputs": [
        {
          "internalType": "uint256",
          "name": "invoiceId",
          "type": "uint256"
        },
        {
          "internalType": "string",
          "name": "invoiceNumber",
          "type": "string"
        },
        {
          "internalType": "string",
          "name": "serviceProviderName",
          "type": "string"
        },
        {
          "internalType": "address",
          "name": "serviceProvider",
          "type": "address"
        },
        {
          "internalType": "uint256",
          "name": "registeredOn",
          "type": "uint256"
        },
        {
          "internalType": "address",
          "name": "registeredBy",
          "type": "address"
        }
      ],
      "stateMutability": "view",
      "type": "function"
    },
    {
      "inputs": [],
      "name": "owner",
      "outputs": [
        {
          "internalType": "address",
          "name": "",
          "type": "address"
        }
      ],
      "stateMutability": "view",
      "type": "function"
    },
    {
      "inputs": [
        {
          "internalType": "address",
          "name": "_invoiceAddress",
          "type": "address"
        },
        {
          "internalType": "string",
          "name": "_invoiceNumber",
          "type": "string"
        },
        {
          "internalType": "string",
          "name": "_serviceProviderName",
          "type": "string"
        }
      ],
      "name": "tokenizeInvoice",
      "outputs": [
        {
          "internalType": "uint256",
          "name": "",
          "type": "uint256"
        }
      ],
      "stateMutability": "nonpayable",
      "type": "function"
    }
  ],
  "bytecode": "0x6080604052600160045534801561001557600080fd5b5060405161074c38038061074c83398101604081905261003491610087565b600280546001600160a01b0319166001600160a01b03831617905560078054336001600160a01b0319909116179055610078600661007e602090811b61037e17901c565b506100b5565b80546001019055565b600060208284031215610098578081fd5b81516001600160a01b03811681146100ae578182fd5b9392505050565b610688806100c46000396000f3fe608060405234801561001057600080fd5b50600436106100415760003560e01c80634026ff2d146100465780638da5cb5b1461006c578063ea0914c914610097575b600080fd5b6100596100543660046104c3565b6100bc565b6040519081526020015b60405180910390f35b60075461007f906001600160a01b031681565b6040516001600160a01b039091168152602001610063565b6100aa6100a5366004610534565b610221565b604051610063969594939291906105aa565b6000806100c860065490565b90506100d8600680546001019055565b6040805160c08101825282815260208082018781528284018790526001600160a01b038916606084018190524260808501523360a08501526000868152600884528581209181529083529390932082518155925180519293926101419260018501920190610387565b506040820151805161015d916002840191602090910190610387565b506060828101516003830180546001600160a01b03199081166001600160a01b0393841617909155608080860151600486015560a095860151600590950180549092169490921693909317909255604080518581526020810185905260119481019490945270125b9d9bda58d948151bdad95b9a5e9959607a1b60c0850152339084018190529083015242908201527fb1efe517ff0b2fbf4529f4d90f972745caf1f37c0a7c6ccd7b2ff0f849b195419060e00160405180910390a1949350505050565b60086020908152600092835260408084209091529082529020805460018201805491929161024e90610601565b80601f016020809104026020016040519081016040528092919081815260200182805461027a90610601565b80156102c75780601f1061029c576101008083540402835291602001916102c7565b820191906000526020600020905b8154815290600101906020018083116102aa57829003601f168201915b5050505050908060020180546102dc90610601565b80601f016020809104026020016040519081016040528092919081815260200182805461030890610601565b80156103555780601f1061032a57610100808354040283529160200191610355565b820191906000526020600020905b81548152906001019060200180831161033857829003601f168201915b505050506003830154600484015460059094015492936001600160a01b03918216939092501686565b80546001019055565b82805461039390610601565b90600052602060002090601f0160209004810192826103b557600085556103fb565b82601f106103ce57805160ff19168380011785556103fb565b828001600101855582156103fb579182015b828111156103fb5782518255916020019190600101906103e0565b5061040792915061040b565b5090565b5b80821115610407576000815560010161040c565b80356001600160a01b038116811461043757600080fd5b919050565b600082601f83011261044c578081fd5b813567ffffffffffffffff808211156104675761046761063c565b604051601f8301601f19908116603f0116810190828211818310171561048f5761048f61063c565b816040528381528660208588010111156104a7578485fd5b8360208701602083013792830160200193909352509392505050565b6000806000606084860312156104d7578283fd5b6104e084610420565b9250602084013567ffffffffffffffff808211156104fc578384fd5b6105088783880161043c565b9350604086013591508082111561051d578283fd5b5061052a8682870161043c565b9150509250925092565b60008060408385031215610546578182fd5b8235915061055660208401610420565b90509250929050565b60008151808452815b8181101561058457602081850181015186830182015201610568565b818111156105955782602083870101525b50601f01601f19169290920160200192915050565b86815260c0602082015260006105c360c083018861055f565b82810360408401526105d5818861055f565b6001600160a01b03968716606085015260808401959095525050921660a0909201919091529392505050565b600181811c9082168061061557607f821691505b6020821081141561063657634e487b7160e01b600052602260045260246000fd5b50919050565b634e487b7160e01b600052604160045260246000fdfea264697066735822122071d9d4ba6b251cde8b03ede7008648f8b1a1cb607cde6ec145d995aa26d2203c64736f6c63430008040033",
  "linkReferences": {},
  "deployedLinkReferences": {}
}