{
  "_format": "hh-sol-artifact-1",
  "contractName": "InvoiceCustomerContract",
  "sourceName": "contracts/InvoiceCustomerContract.sol",
  "abi": [
    {
      "inputs": [],
      "stateMutability": "nonpayable",
      "type": "constructor"
    },
    {
      "inputs": [],
      "name": "_counter",
      "outputs": [
        {
          "internalType": "uint256",
          "name": "",
          "type": "uint256"
        }
      ],
      "stateMutability": "view",
      "type": "function"
    },
    {
      "inputs": [
        {
          "internalType": "string",
          "name": "_invoiceNumber",
          "type": "string"
        },
        {
          "internalType": "string",
          "name": "_invoiceContent",
          "type": "string"
        }
      ],
      "name": "addInvoices",
      "outputs": [],
      "stateMutability": "nonpayable",
      "type": "function"
    },
    {
      "inputs": [
        {
          "internalType": "uint256",
          "name": "",
          "type": "uint256"
        }
      ],
      "name": "books",
      "outputs": [
        {
          "internalType": "uint256",
          "name": "id",
          "type": "uint256"
        },
        {
          "internalType": "string",
          "name": "invoiceNumber",
          "type": "string"
        },
        {
          "internalType": "string",
          "name": "invoiceContent",
          "type": "string"
        }
      ],
      "stateMutability": "view",
      "type": "function"
    },
    {
      "inputs": [],
      "name": "getPriceInfo",
      "outputs": [
        {
          "internalType": "bytes32",
          "name": "",
          "type": "bytes32"
        }
      ],
      "stateMutability": "nonpayable",
      "type": "function"
    },
    {
      "inputs": [],
      "name": "requestId",
      "outputs": [
        {
          "internalType": "bytes32",
          "name": "",
          "type": "bytes32"
        }
      ],
      "stateMutability": "view",
      "type": "function"
    },
    {
      "inputs": [],
      "name": "show",
      "outputs": [
        {
          "internalType": "uint256",
          "name": "",
          "type": "uint256"
        }
      ],
      "stateMutability": "view",
      "type": "function"
    }
  ],
  "bytecode": "0x6080604052600080546001600160a01b031916734c50a698f8148b2560eadb50a8397b614dcff6a017905534801561003657600080fd5b5060016002556106778061004b6000396000f3fe608060405234801561001057600080fd5b50600436106100615760003560e01c80626d6cae146100665780630bd3ec8b14610082578063330227bf14610097578063687440461461009f5780637cd49fde146100c1578063cc80f6f3146100ca575b600080fd5b61006f60015481565b6040519081526020015b60405180910390f35b6100956100903660046104d3565b6100d2565b005b61006f610154565b6100b26100ad366004610534565b6101dc565b60405161007993929190610597565b61006f60025481565b61006f61030f565b604080516060810182526002548082526020808301868152838501869052600092835260038252939091208251815592518051929392610118926001850192019061039b565b506040820151805161013491600284019160209091019061039b565b5090505060016002600082825461014b91906105cc565b90915550505050565b60008054604051639dd4cc5d60e01b81523360048201526001600160a01b0390911690639dd4cc5d90602401602060405180830381600087803b15801561019a57600080fd5b505af11580156101ae573d6000803e3d6000fd5b505050506040513d601f19601f820116820180604052508101906101d291906104bb565b6001819055919050565b600360205260009081526040902080546001820180549192916101fe906105f0565b80601f016020809104026020016040519081016040528092919081815260200182805461022a906105f0565b80156102775780601f1061024c57610100808354040283529160200191610277565b820191906000526020600020905b81548152906001019060200180831161025a57829003601f168201915b50505050509080600201805461028c906105f0565b80601f01602080910402602001604051908101604052809291908181526020018280546102b8906105f0565b80156103055780601f106102da57610100808354040283529160200191610305565b820191906000526020600020905b8154815290600101906020018083116102e857829003601f168201915b5050505050905083565b60008060009054906101000a90046001600160a01b03166001600160a01b0316638e0e0abb6040518163ffffffff1660e01b815260040160206040518083038186803b15801561035e57600080fd5b505afa158015610372573d6000803e3d6000fd5b505050506040513d601f19601f8201168201806040525081019061039691906104bb565b905090565b8280546103a7906105f0565b90600052602060002090601f0160209004810192826103c9576000855561040f565b82601f106103e257805160ff191683800117855561040f565b8280016001018555821561040f579182015b8281111561040f5782518255916020019190600101906103f4565b5061041b92915061041f565b5090565b5b8082111561041b5760008155600101610420565b600082601f830112610444578081fd5b813567ffffffffffffffff8082111561045f5761045f61062b565b604051601f8301601f19908116603f011681019082821181831017156104875761048761062b565b8160405283815286602085880101111561049f578485fd5b8360208701602083013792830160200193909352509392505050565b6000602082840312156104cc578081fd5b5051919050565b600080604083850312156104e5578081fd5b823567ffffffffffffffff808211156104fc578283fd5b61050886838701610434565b9350602085013591508082111561051d578283fd5b5061052a85828601610434565b9150509250929050565b600060208284031215610545578081fd5b5035919050565b60008151808452815b8181101561057157602081850181015186830182015201610555565b818111156105825782602083870101525b50601f01601f19169290920160200192915050565b8381526060602082015260006105b0606083018561054c565b82810360408401526105c2818561054c565b9695505050505050565b600082198211156105eb57634e487b7160e01b81526011600452602481fd5b500190565b600181811c9082168061060457607f821691505b6020821081141561062557634e487b7160e01b600052602260045260246000fd5b50919050565b634e487b7160e01b600052604160045260246000fdfea2646970667358221220b2708c302aa810fa798eaa3ec41844fa145f8ff9ee79bb1947b6742508b0801264736f6c63430008040033",
  "linkReferences": {},
  "deployedLinkReferences": {}
}